:020000040800F2
:1000000000040020C101000881B6000881B6000884
:1000100081B6000881B6000881B6000881B60008E4
:1000200081B6000881B6000881B60008618D00081D
:1000300081B6000881B6000881B6000881B60008C4
:1000400081B6000881B6000881B6000881B60008B4
:1000500081B6000881B6000881B6000881B60008A4
:1000600081B6000881B6000881B60008617E0008EC
:10007000B17E0008017F0008517F0008A17F0008C1
:10008000F17F00084180000881B6000881B60008B1
:1000900081B6000881B6000881B6000881B6000864
:1000A00081B6000881B6000881B6000881B6000854
:1000B000B163000881B6000881B60008E16E00084F
:1000C000016F0008516F0008716F000881B60008C9
:1000D00081B6000881B60008F152000881B6000818
:1000E00081B6000881B6000881B6000881B6000814
:1000F00081B6000881B6000881B60008918000082A
:1001000081B6000881B6000881B6000881B60008F3
:1001100081B6000881B6000881B6000881B60008E3
:10012000E18000083181000881810008D181000848
:100130002182000881B6000881B6000881B6000857
:1001400081B6000881B6000881B6000881B60008B3
:1001500071820008C18200081183000881B600087E
:10016000C16F0008E16F000881B6000881B6000881
:1001700081B6000881B6000881B6000881B6000883
:1001800081B6000881B6000881B6000881B6000873
:1001900081B6000881B6000881B6000881B6000863
:1001A00081B6000881B6000881B6000881B6000853
:1001B00081B6000881B6000881B6000881B6000843
:1001C00072B6224880F30988022080F31488BFF3B6
:1001D0006F8F0BF005FA05F0D3F81D481D491E4A34
:1001E00091423CBF41F8040BFAE71C49174A91427F
:1001F0003CBF41F8040BFAE719491A4A1A4B9A42D4
:100200003EBF51F8040B42F8040BF8E700201749F1
:10021000174A91423CBF41F8040BFAE70BF0F8F99A
:100220000BF0E6F9134C144DAC4203DA54F8041BFE
:100230008847F9E700F004FE104C114DAC4203DA98
:1002400054F8041B8847F9E70BF0DAB900080020DE
:1002500055555555000000200004002000040020E2
:10026000C8E90008000800202C0D0020300D0020F7
:10027000D8250020C0010008C0010008C001000806
:10028000C0010008000000000000000000000000A5
:100290002DE9F04FC1F80CD0C3689D46BDE8F08F42
:1002A0000BF096FD0AF0D4F8002383F3118828465A
:1002B000A04700200CF064FD0AF0C2F80BF070FDBE
:1002C0000CF09EFA0BF084FD0AF0C2F800DFFEE7A6
:1002D00008B52E4805F08CF94FF4BB6005F040F9E5
:1002E0002B4805F0A5F92B4805F082F9602005F0B0
:1002F00037F9274805F09CF9274805F079F91420CB
:1003000005F02EF9224805F093F9244805F070F91C
:100310000C2005F025F91E4805F08AF9204805F063
:1003200067F9042005F01CF9194805F081F91D480A
:1003300005F05EF9142005F013F9154805F078F979
:10034000194805F055F9102005F00AF9104805F094
:100350006FF9164805F04CF9082005F001F90C4832
:1003600005F066F9124805F043F9242005F0F8F885
:10037000074805F05DF90F4805F03AF9282005F027
:10038000EFF8034805F054F908BD00BFD0D60008C7
:10039000E0D60008E8D60008F8D6000808D700081C
:1003A00018D7000828D7000838D7000848D7000811
:1003B00058D7000868D700080000000000000000BF
:1003C00088B00390029101920093029B0593009BD9
:1003D000002B02D1029B049301E0009B0493039B3A
:1003E0000B330693059B019AB3FBF2F2019901FBD3
:1003F00002F29B1A0793079B30330793079B392B15
:1004000002DD079B07330793069B013B0693079B7F
:10041000DAB2069B1A70059A019BB2FBF3F30593BF
:10042000049A019BB2FBF3F30493049B002BD9D1F4
:10043000039B0B331A46069BD31A0793039B5A1C44
:100440000392069A511C069112781A70079B013B81
:100450000793079B002BF1D1039B184608B0704708
:1004600000B585B003900291019203980299019A18
:100470000023FFF7A5FF0346184605B05DF804FB0F
:1004800000B591B003900291019200230993029B61
:100490005A1C02921B788DF837309DF83730002BAC
:1004A00001D1099B0BE29DF83730252B0BD0039B24
:1004B0001B689B689DF83720039811469847099B55
:1004C00001330993E3E704AB0F9304AB0E930023CE
:1004D0008DF82230029B1B782D2B05D1029B013316
:1004E000029301238DF8223020238DF83630029BB1
:1004F0001B78302B05D1029B0133029330238DF8FA
:10050000363000230A93029B5A1C02921B788DF806
:1005100037309DF837302F2B09D99DF83730392BDC
:1005200005D89DF83730303B8DF8373009E09DF81D
:1005300037302A2B10D1019B1A1D01921B688DF8B0
:1005400037300A9A13469B0013445B001A469DF805
:10055000373013440A93D6E700230B939DF83730C6
:100560002E2B29D1029B5A1C02921B788DF8373012
:100570009DF837302F2B09D99DF83730392B05D806
:100580009DF83730303B8DF8373009E09DF8373033
:100590002A2B11D1019B1A1D01921B688DF837304F
:1005A0000B9A13469B0013445B000B939DF8373066
:1005B0000B9A13440B93D5E79DF837306C2B03D07F
:1005C0009DF837304C2B0DD101238DF82330029B41
:1005D0001B78002B1AD0029B5A1C02921B788DF8B4
:1005E000373014E09DF83730402B05D99DF837306F
:1005F0005A2B01D8012300E000238DF823309DF809
:10060000233003F001038DF8233000E000BF9DF894
:100610003730443B342B00F2E28001A252F823F041
:1006200057070008DF070008DF070008DF0700089A
:10063000DF07000857070008DF070008DF0700088A
:10064000DF070008DF070008DF070008A907000828
:10065000DF070008DF070008DF070008DF070008E2
:10066000DF070008A1070008DF070008DF07000810
:1006700099070008DF070008DF070008DF07000808
:10068000DF070008DF070008DF070008DF070008B2
:10069000DF070008DF070008DF070008F50600088D
:1006A00057070008DF070008DF070008DF0700081A
:1006B000DF07000857070008DF070008DF0700080A
:1006C000DF070008DF070008DF070008A9070008A8
:1006D000DF070008DF070008DF0700080F07000832
:1006E000DF070008A1070008DF070008DF07000890
:1006F0009907000820238DF836300F9B5A1C0F9263
:10070000019A111D01911268D2B21A706DE0202376
:100710008DF83630019B1A1D01921B680E930E9BBB
:10072000002B01D1684B0E930B9B002B02D147F697
:10073000FF730B930E9B0F9302E00F9B01330F93FC
:100740000F9B1B78002B50D00B9B013B0B930B9BFB
:10075000002BF2DA49E09DF82330002B05D0019BF5
:100760001A1D01921B68079304E0019B1A1D019258
:100770001B680793079B002B07DA0F9B5A1C0F92ED
:100780002D221A70079B5B4207930F9807990A2244
:10079000FFF766FE0F9028E010238DF8373006E053
:1007A0000A238DF8373002E008238DF837309DF8A2
:1007B0002330002B05D0019B1A1D01921B68079363
:1007C00004E0019B1A1D01921B6807939DF83730C6
:1007D0000F9807991A46FFF743FE0F9005E00F9B0D
:1007E0005A1C0F929DF837201A700F9A0E9BD31A3D
:1007F0000C930A9A0C9BD31A0A930A9B002B01DADA
:1008000000230A939DF8223083F00103DBB2002B12
:1008100002D00A9B5B420A930A9B002B36DA0E9B9E
:100820001B782D2B13D19DF83630302B0FD1039B25
:100830001B689A680E9B591C0E911B7803981946E9
:100840009047099B013309930C9B013B0C93039B3D
:100850001B689B689DF83620039811469847099BB2
:10086000013309930A9B01330A930A9B002BEED1B3
:100870000CE0039B1B689A680E9B591C0E911B7819
:10088000039819469047099B013309930C9B013B40
:100890000C930C9B002BECDA0DE0039B1B689B6810
:1008A0009DF83620039811469847099B0133099318
:1008B0000A9B013B0A930A9B002BEED1E7E5184601
:1008C00011B05DF804FB00BF94D7000800000000E1
:1008D0000EB400B584B0019006AB0293019805995F
:1008E000029AFFF7CDFD0390039B184604B05DF814
:1008F00004EB03B0704700BF0000000000000000E0
:1009000000B583B0019001984FF0FF3109F020FC51
:100910000346184603B05DF804FB00BF000000006A
:1009200010B586B005900B468DF813309DF8133046
:10093000452B03D99DF81330F92B2BD9059B282281
:100940005A65059B1B7B002B04D0059B5B681846F2
:1009500006F086FF059B5868059B1B7899B2059B9E
:1009600003F10D02059B5B6D0DF113040092012252
:10097000019202932246012306F01AFF0246059BCC
:100980001A65059B1B7B002B04D0059B5B681846F2
:1009900006F07EFF059B5B7B184606B010BD00BFCE
:1009A00010B586B005900B468DF8133013468DF8C0
:1009B0001230059B9DF8132083F82D20059B9DF890
:1009C000122083F82E20059B28225A65059B1B7B4D
:1009D000002B04D0059B5B68184606F041FF059B81
:1009E0005868059B1B7899B2059B03F12D04059B64
:1009F00003F10D02059B5B6D0092002201920293B0
:100A00002246022306F0D4FE0246059B1A65059B8A
:100A10001B7B002B04D0059B5B68184606F038FF53
:100A200006B010BD00000000000000000000000043
:100A300000B583B00190019800210022FFF7B0FFBC
:100A40000A200CF06DF903B05DF804FB0000000013
:100A500000B585B001900091009B1B031F4AB2FBBB
:100A6000F3F3DBB2013B8DF80F309DF80F30022B12
:100A700002D803238DF80F3001980021FFF750FFB3
:100A800003468DF80E3010238DF80D309DF80D3093
:100A9000019800211A46FFF783FF9DF80F30019857
:100AA000FE211A46FFF77CFF9DF80E3001980021C9
:100AB0001A46FFF775FF05200CF032F99DF80E304D
:100AC00063F05E03DBB2019800211A46FFF768FF6E
:100AD000019B009A9A6505B05DF804FB40787D01A2
:100AE00010B588B00790084611461A4603468DF89F
:100AF0001B300B46ADF818301346ADF81630079B87
:100B00009DF81B2083F85C209DF81B309B00DBB216
:100B10000633DAB2079B83F82D20BDF81830DAB21D
:100B2000079B83F82E20BDF818301B0A9BB2DAB25F
:100B3000079B83F82F20BDF81630DAB2079B83F8A5
:100B40003020BDF816301B0A9BB2DAB2079B83F83F
:100B50003120079B28225A65079B1B7B002B04D062
:100B6000079B5B68184606F07BFE079B5868079B4F
:100B70001B7899B2079B03F12D04079B03F10D022B
:100B8000079B5B6D0092002201920293224605238F
:100B900006F00EFE0246079B1A65079B1B7B002B87
:100BA00004D0079B5B68184606F072FE08B010BDC3
:100BB00082B00190019BB3F1FF3F01D1019B1CE08A
:100BC000019B002B01D1962317E0019BB42B02D18E
:100BD00040F2EE2311E0019B13F1020F01D100233B
:100BE0000BE0019B4FF4617202FB03F3044A82FBAA
:100BF00003121A44D211DB17D31A184602B07047F9
:100C0000B7600BB60000000000000000000000000C
:100C100010B5ADF5886D05AB18600023CDF83C34F8
:100C20000023CDF838340023CDF81C3469E07F4828
:100C3000FFF766FE03468DF8233406AADDF83C3440
:100C400013449DF823241A70DDF83C340133CDF8A9
:100C50003C349DF823342C2B53D106AADDF83C34C8
:100C6000134400221A70DDF83834002B09D106AB8A
:100C700018460CF02DFA03461846FFF799FFCDF8F9
:100C80003404DDF83834012B09D106AB18460CF0DA
:100C90001FFA03461846FFF78BFFCDF83004DDF846
:100CA0003834022B09D106AB18460CF011FA034672
:100CB0001846FFF77DFFCDF82C04DDF83834002B03
:100CC00009D006AB18460CF003FA03461846FFF7A6
:100CD0006FFFCDF82804DDF83834042B09D106ABBA
:100CE00018460CF0F5F903461846FFF761FFCDF8FA
:100CF00024040023CDF83C34DDF838340133CDF83A
:100D000038349DF82334262B91D106AADDF83C34E3
:100D1000134400221A7006AB18460CF0D9F90346AA
:100D20001846FFF745FFCDF818044FF47A700BF022
:100D3000F7FFDDF82C340093DDF828340193DDF85B
:100D400024340293DDF81834039339483949DDF827
:100D50003424DDF83034FFF7BBFDDDF83434B3F173
:100D6000FF3F09D0DDF834349CB205AB1868002190
:100D700000222346FFF7B4FEDDF83434B3F1FF3F21
:100D800009D0DDF830349CB205AB1868012100228F
:100D90002346FFF7A5FEDDF83434B3F1FF3F09D059
:100DA000DDF82C349CB205AB1868022100222346E2
:100DB000FFF796FEDDF83434B3F1FF3F09D0DDF8DC
:100DC00028349CB205AB1868032100222346FFF7A4
:100DD00087FEDDF83434B3F1FF3F09D0DDF8243469
:100DE0009CB205AB1868042100222346FFF778FE69
:100DF000DDF83434B3F1FF3F09D0DDF818349CB28C
:100E000005AB1868052100222346FFF769FE4FF461
:100E10007A700BF085FF0023CDF83C340023CDF829
:100E2000383400238DF823346BE700BF68140020AA
:100E30005C1400209CD700080000000000000000A7
:100E400000B59BB007F0E4FF0AF002FE22482349F8
:100E500006F0A6FE22484FF4807140F2062205F00B
:100E60006FFB1F484FF4007140F2062205F068FB4B
:100E700040238DF808301B4B03933C2318931A4BE7
:100E8000049301238DF81430039A049B10461946ED
:100E900006F05EFC02AB1846FFF7CAFD189B02AADB
:100EA00010461946FFF7D4FD02AB00930F4840F6F9
:100EB000E80140220E4B0BF0A3FE0E4B1B695B0BAF
:100EC00003F00103002B02D1034804F069FD41F255
:100ED00088300BF025FFF0E75C140020EC080020C0
:100EE00000040240B4130020A0E80008F01C002019
:100EF000110C000800080240000000000000000083
:100F000000B583B0064B1A680023009305481146CC
:100F10000422054B09F0C4F903B05DF804FB00BFDF
:100F200020E40008C8080020912D000800000000FF
:100F300000B583B00190044800214FF4FA6207F035
:100F400007FB03B05DF804FBC808002000000000A8
:100F500010B586B001F034FE9E4801F0D1FE034684
:100F60000120194604F0D4FB0346002B02D001F007
:100F70002FFE2DE101F02CFE002305930AE0059BD6
:100F8000DBB24133DBB29348194601F0E9FE059B21
:100F900001330593059B032BF1D901F011FE8D4818
:100FA00001F0CEFE03460220194604F0B1FB0346D1
:100FB000002B02D001F00CFE0AE101F009FE002333
:100FC000059311E001F0FCFD824807F009FB0346A0
:100FD0008DF8133001F0FCFD9DF81330184604F035
:100FE00067FB059B01330593059B032BEAD901F0B1
:100FF000E7FD784801F084FE03460320194604F01B
:1010000087FB0346002B02D001F0E2FDE0E001F097
:10101000DFFD0420704904F093FB0346002B40F0F1
:10102000D78001F0CDFD6B4807F0DAFA034613F1E3
:10103000030F0CBF01230023DBB20520194604F087
:1010400067FB0346002B02D001F0C2FDC0E001F0B7
:10105000BFFD624B5B685F4819460822002307F01A
:10106000EFFA0390039B042B0CBF01230023DBB298
:101070000620194604F04CFB0346002B40F0A880E4
:1010800001F09EFD534801F05BFE03460720194620
:1010900004F03EFB0346002B02D001F099FD97E0DF
:1010A00001F096FD4D4B1C6801F0BAFD03465A1C39
:1010B0000023009320464FF4B471494B0BF0A0FD80
:1010C0000246484B1A6001F07BFD424801F000FEE9
:1010D0000346042B0CBF01230023DBB20820194672
:1010E00004F016FB0346002B02D001F071FD6FE007
:1010F00001F06EFD04F08CFB01F062FD354807F055
:1011000007FA01F065FD01F05BFD324801F0E0FDFA
:101110000346002B0CBF01230023DBB20920194634
:1011200004F0F6FA0346002B02D001F051FD4FE027
:1011300001F04EFD294B5B68264819460222002328
:1011400007F07EFA0390039B022B0CBF01230023C0
:10115000DBB20A20194604F0DBFA0346002B37D134
:101160001E4B5B681B4819460222002307F068FAF1
:101170000390039B022B0CBF01230023DBB20B2047
:10118000194604F0C5FA0346002B21D101F018FDE1
:10119000104801F0D5FD03460C20194604F0B8FABA
:1011A0000346002B02D001F013FD11E001F010FD09
:1011B000084800210A2207F0CBF90346B3F1FF3FAC
:1011C0000CBF01230023DBB20D20194604F0A0FA66
:1011D00006B010BDC8080020B0D7000820E4000801
:1011E000310F0008F81B0020000000000000000084
:1011F00082B0EFF311830093009B0193019B18468B
:1012000002B0704700000000000000000000000075
:1012100082B00190019B002B0CBF01230023DBB2A5
:10122000184602B0704700BF000000000000000038
:1012300082B020230193019B83F3118802B0704791
:1012400082B000230193019B83F3118802B07047A1
:1012500008B5FFF7EDFF08BD00000000000000002A
:1012600008B5FFF7EDFF08BD00000000000000001A
:1012700072B670470000000000000000000000008F
:1012800082B020230193019B83F3118862B602B0E0
:10129000704700BF000000000000000000000000D8
:1012A00082B000230193019B83F3118862B602B0E0
:1012B000704700BF000000000000000000000000B8
:1012C00008B5FFF7D5FF0AF023FD08BD00000000B8
:1012D00008B5FFF7D5FF0AF033FD08BD0000000098
:1012E00008B50AF045FDFFF7DBFF08BD0000000070
:1012F00008B5FFF79DFF09F0A3F80AF051FD08BDFE
:1013000008B50AF065FD09F0A3F8094B1B68084A07
:1013100093420AD0064B9B699A68054B1B689B68F1
:101320009A4202D203480AF0E3FBFFF789FF08BDA7
:10133000300D002070E700080000000000000000F1
:1013400008B5FFF785FF09F08BF80AF059FD08BDD5
:1013500008B50AF06DFD09F08BF8FFF781FF08BDB5
:1013600008B5FFF745FF03461846FFF751FF034650
:10137000002B01D0FFF7BCFF08BD00BF000000003C
:1013800008B5FFF735FF03461846FFF741FF034650
:1013900083F00103DBB2002B01D0FFF7B1FF08BDE2
:1013A00082B00190019B0022DA6002B0704700BF5A
:1013B00000B583B001900AF093FD019BDB68002B20
:1013C00014BF01230023DBB2184603B05DF804FB11
:1013D00000B585B00190FFF78BFF0198FFF7E8FF9C
:1013E00003468DF80F30FFF78BFF9DF80F3018463E
:1013F00005B05DF804FB00BF000000000000000025
:1014000000B583B001900198FFF7D2FF0346002B8F
:1014100002D001980AF0BCFE03B05DF804FB00BFE7
:1014200000B585B003900291019200930398FFF7F5
:10143000E7FF03980299019A009B0AF019FE05B094
:101440005DF804FB00000000000000000000000048
:1014500000B585B00390029101920093FFF748FF19
:1014600003980299019A009BFFF7DAFFFFF748FF04
:1014700005B05DF804FB00BF0000000000000000A4
:1014800000B585B00190FFF75BFFFFF761FFFFF745
:1014900057FF0AF0CDFB039003980AF0E9FBFFF732
:1014A00057FF05B05DF804FB0000000000000000DD
:1014B00000B587B00AF0BCFB059005980AF0D8FB90
:1014C000FFF716FF0AF0B4FB059005980AF0D0FB71
:1014D000FFF716FFFFF744FFFFF742FFFFF710FF8C
:1014E000FFF706FFFFF74CFFFFF74AFF6B46184672
:1014F000FFF756FF6B4618460121104A0023FFF7FD
:10150000A7FF0A200BF00CFC6B461846FFF760FFA4
:101510000346002B14BF01230023DBB283F0010339
:10152000DBB203F00103DBB20120194604F0F0F84E
:101530000346002B07B05DF804FB00BF81140008D0
:1015400008B5FFF7C5FEFFF7BBFEFFF7C1FEFFF7CB
:10155000C7FE08BD00000000000000000000000001
:1015600000B583B0FFF7C4FE01200AF0D1FA0346AC
:101570008DF80730FFF7C4FE9DF80730002B14BF2D
:1015800001230023DBB283F00103DBB203F001038C
:10159000DBB20120194604F0BBF80346002B56D1FC
:1015A000FFF7A6FE02200AF0B3FA03468DF80730D3
:1015B000FFF7A6FE9DF80730002B14BF0123002380
:1015C000DBB283F00103DBB203F00103DBB20220E4
:1015D000194604F09DF80346002B38D1FFF788FE2A
:1015E00004200AF095FA03468DF80730FFF788FECD
:1015F0009DF80730002B14BF01230023DBB283F0DA
:101600000103DBB203F00103DBB20320194604F04F
:101610007FF80346002B1AD1FFF76AFE08200AF074
:1016200077FA03468DF80730FFF76AFE9DF807301A
:10163000002B14BF01230023DBB283F00103DBB2D4
:1016400003F00103DBB20420194604F061F803B093
:101650005DF804FB00000000000000000000000036
:1016600082B020230193019B83F3118802B070475D
:1016700082B000230193019B83F3118802B070476D
:1016800008B5FFF7EDFF08F0DBFE0AF089FB08BDA7
:1016900008B50AF09DFB08F0DBFE094B1B68084A01
:1016A00093420AD0064B9B699A68054B1B689B685E
:1016B0009A4202D203480AF01BFAFFF7D9FF08BD8D
:1016C000300D002090E8000800000000000000003D
:1016D000014B9B6918467047300D00200000000048
:1016E00008B5FFF7F5FF03469B68184608BD00BF25
:1016F00008B5FFF7EDFF034693F8213003F004032C
:10170000002B14BF01230023DBB2184608BD00BF25
:1017100082B00190019B5B6B184602B0704700BF1E
:1017200000B583B0019001984FF0FF3108F010FD33
:101730000346184603B05DF804FB00BF000000003C
:1017400000B583B00190019B18460BF019FB03B064
:101750005DF804FB00000000000000000000000035
:1017600000B585B0019008F0E3F803900398FFF707
:10177000CFFF02900398029908F002F9029B002B18
:10178000F1D105B05DF804FB00000000000000008E
:1017900000B585B001900023039304F061F84FF485
:1017A0007A7004F07DF80198012108F089F8039B14
:1017B00001330393074B1B7883F00103DBB2002B4B
:1017C000F1D10198002108F07BF8039B184605B081
:1017D0005DF804FB101C0020000000000000000069
:1017E00010B584B0154B1C68FFF77AFF03465A1EEC
:1017F0000023009320464FF4B471114B0BF000FA14
:101800000246104B1A600F4B1B681846FFF7C0FFCB
:10181000039003F0FDFF0C4803F0EAFE039803F089
:101820009FFE0A4803F0E4FE039B5B00184603F0AA
:1018300097FE074803F0FCFE04B010BD20E400084A
:1018400061170008F81B0020B8D70008C8D70008A7
:10185000D4D70008000000000000000000000000D5
:1018600010B584B0154B1C68FFF73AFF03465A1CAD
:101870000023009320464FF4B471114B0BF0C0F9D4
:101880000246104B1A600F4B1B681846FFF780FF8B
:10189000039003F0BDFF0C4803F0AAFE039803F089
:1018A0005FFE0A4803F0A4FE039B5B00184603F0AA
:1018B00057FE074803F0BCFE04B010BD20E400084A
:1018C00061170008F81B0020B8D70008C8D7000827
:1018D000D4D7000800000000000000000000000055
:1018E00010B584B0374B1C68FFF7FAFE03465A1C4C
:1018F0000023009320464FF4B471334B0BF080F972
:101900000246324B1A602F4B5C68FFF7E9FE034634
:101910009A1E0023009320464FF4B4712C4B0BF019
:101920006FF90246294B5A60264B9C68FFF7D8FE98
:101930000346DA1E0023009320464FF4B471244B73
:101940000BF05EF90246214B9A601E4BDC68FFF7F4
:10195000C7FE03461A1F0023009320464FF4B471BC
:101960001B4B0BF04DF90246184BDA60154B1C6906
:10197000FFF7B6FE03465A1F0023009320464FF49C
:10198000B471134B0BF03CF90246104B1A610F4B2C
:101990001B681846FFF7FCFE039003F039FF0D4863
:1019A00003F026FE039803F0DBFD0B4803F020FE56
:1019B000039B5B00184603F0D3FD084803F038FE94
:1019C00004B010BD20E4000861170008F81B0020D7
:1019D00041170008B8D70008C8D70008D4D70008B6
:1019E00000B585B00190FFF773FE0390FFF748FE46
:1019F00003200AF03DFD039B5B6A0293029B002BD0
:101A0000F6D0FFF745FE05B05DF804FB00000000CE
:101A100010B584B0284B1C68FFF762FE03465A1CC1
:101A20000023009320464FF4B471244B0BF0E8F8E8
:101A30000246234B1A60224B1B6802930023039338
:101A400003F00EFF4FF47A7003F02AFFFFF718FE41
:101A5000029800210AF0C4FD029800210AF0C0FD9E
:101A6000029800210AF0BCFD029800210AF0B8FD9E
:101A7000FFF70EFE039B04330393124B1B7883F096
:101A80000103DBB2002BE1D1FFF7FAFD02984FF022
:101A9000FF310AF0A5FDFFF7FBFD03F0B9FE0A4890
:101AA00003F0A6FD039B5B00184603F059FD0748B1
:101AB00003F0BEFD04B010BD20E40008E1190008E9
:101AC000F81B0020101C0020B8D70008D4D700084D
:101AD00000B587B000230593184B1B680493FFF7EC
:101AE000FFFD0346013B039303F0BAFE4FF47A7007
:101AF00003F0D6FE0023009304984FF4B471039AC8
:101B00000F4B0BF07DF8034618460BF089F9059B47
:101B1000013305930B4B1B7883F00103DBB2002BE1
:101B2000E8D1094803F064FD059803F019FD074862
:101B300003F07EFD07B05DF804FB00BF20E4000861
:101B400041170008101C0020B8D70008E0D7000893
:101B500000B587B000230593164B1B680493FFF76D
:101B6000BFFD03460133039303F07AFE4FF47A700E
:101B700003F096FE0023009304984FF4B471039A87
:101B80000D4B0BF03DF8059B013305930B4B1B7878
:101B900083F00103DBB2002BECD1094803F028FDF0
:101BA000059803F0DDFC074803F042FD07B05DF83F
:101BB00004FB00BF20E4000841170008101C0020AF
:101BC000B8D70008E0D700080000000000000000BF
:101BD00000B583B0019002E0064808F049FFFFF726
:101BE00087FD034683F00103DBB2002BF4D103B081
:101BF0005DF804FB741C00200000000000000000E1
:101C000008B50248002108F0ABFE08BD741C002096
:101C100010B584B0444B1C68FFF762FD03465A1DA3
:101C20000023009320464FF4B471404B0AF0E8FFC4
:101C300002463F4B1A603C4B5C68FFF751FD034680
:101C40001A1D0023009320464FF4B471374B0AF05D
:101C5000D7FF0246364B5A60334B9C68FFF740FD76
:101C60000346DA1C0023009320464FF4B4712F4B37
:101C70000AF0C6FF02462E4B9A602B4BDC68FFF73A
:101C80002FFD03469A1C0023009320464FF4B471A5
:101C9000264B0AF0B5FF0246254BDA60224B1C6941
:101CA000FFF71EFD03465A1C0023009320464FF405
:101CB000B4711E4B0AF0A4FF02461D4B1A610023AB
:101CC000039303F0CDFD4FF47A7003F0E9FD19485A
:101CD000002108F065FE039B01330393164B1B782C
:101CE00083F00103DBB2002BF1D103F071FD114849
:101CF000002108F055FE03F08BFD104803F078FC3E
:101D0000039803F02DFC0E4803F072FC039A13466F
:101D10005B0013445B00184603F022FC094803F003
:101D200087FC04B010BD00BF20E40008D11B0008F0
:101D3000F81B0020741C0020101C0020B8D70008DD
:101D4000ECD70008D4D70008000000000000000015
:101D500000B583B001900BF00BF80BF009F80BF015
:101D600007F80BF005F8019B1B681A1D019B1A6010
:101D7000FFF7BEFC034683F00103DBB2002BEAD180
:101D800003B05DF804FB00BF00000000000000008D
:101D900010B584B00023039303F062FD344B1C683C
:101DA000FFF79EFC03465A1E03AB009320464FF4F8
:101DB000B471304B0AF024FF02462F4B1A602C4BB3
:101DC0005C68FFF78DFC03465A1E03AB0093204668
:101DD0004FF4B471274B0AF013FF0246264B5A60AA
:101DE000234B9C68FFF77CFC03465A1E03AB009311
:101DF00020464FF4B4711F4B0AF002FF02461E4BFF
:101E00009A601B4BDC68FFF76BFC03465A1E03AB62
:101E1000009320464FF4B471164B0AF0F1FE0246CF
:101E2000154BDA60124B1C69FFF75AFC03465A1E29
:101E300003AB009320464FF4B4710E4B0AF0E0FE62
:101E400002460D4B1A6142F210700AF069FF03F06E
:101E5000BFFC03F0DDFC094803F0CAFB039B1846F6
:101E600003F07EFB064803F0E3FB04B010BD00BFA7
:101E700020E40008511D0008F81B0020B8D7000816
:101E8000D4D700080000000000000000000000009F
:101E900000B585B000230093224823491022002377
:101EA00008F0D6F80023039303F0DAFC4FF47A70BD
:101EB00003F0F6FCFFF7E4FB1A48002108F010F9E4
:101EC0001848012108F00CF91648022108F008F919
:101ED0001448032108F004F9FFF7DAFB1148FFF773
:101EE0001FFC1048FFF71CFC0E48FFF719FC0D48BB
:101EF000FFF716FC039B013303930C4B1B7883F015
:101F00000103DBB2002BD5D1094803F071FB039B21
:101F10009B00184603F024FB064803F089FB05B03C
:101F20005DF804FB901C0020B41C0020101C002055
:101F3000B8D7000800D8000800000000000000002A
:101F400082B0019002B07047000000000000000065
:101F500000B583B00023019303F082FC4FF47A7044
:101F600003F09EFCFFF78CFB16480121164A002364
:101F70000AF07EF8154842F21071134A00230AF065
:101F800077F810480AF004F910480AF001F9FFF751
:101F90007FFB019B013301930D4B1B7883F0010301
:101FA000DBB2002BDED10B4803F022FB019B5B0070
:101FB000184603F0D5FA084803F03AFB03B05DF881
:101FC00004FB00BFC41C0020411F0008D81C0020D7
:101FD000101C0020B8D700080CD800080000000032
:101FE00008B50248012108F0BBFC08BD741C0020A4
:101FF00000B583B00023019303F032FC4FF47A70F4
:1020000003F04EFC174808F033FD164808F008FEB0
:10201000144808F02DFD134808F002FE114808F09E
:1020200027FD104808F0FCFD0E4808F021FD0D4882
:1020300008F0F6FD019B013301930B4B1B7883F0F5
:102040000103DBB2002BDDD1084803F0D1FA019B7C
:102050009B00184603F084FA054803F0E9FA03B040
:102060005DF804FB741C0020101C0020B8D7000889
:1020700018D8000800000000000000000000000068
:1020800008B5024808F0F4FF08BD00BF801C00201E
:1020900000B583B00023019303F0E2FB4FF47A70A4
:1020A00003F0FEFB174808F0FBFF164809F0C8F8DC
:1020B000144808F0F5FF134809F0C2F8114808F079
:1020C000EFFF104809F0BCF80E4808F0E9FF0D4892
:1020D00009F0B6F8019B013301930B4B1B7883F099
:1020E0000103DBB2002BDDD1084803F081FA019B2C
:1020F0009B00184603F034FA054803F099FA03B040
:102100005DF804FB801C0020101C0020B8D70008DC
:1021100028D80008000000000000000000000000B7
:1021200008B54FF0FF3007F0D3F808BD00000000FD
:1021300000B583B04FF0FF30002107F079FA01902D
:10214000019B002B0CBF01230023DBB201201946A9
:1021500003F0DEFA0346002B5BD14FF0FF30002185
:1021600007F0A6FA0190019B002B0CBF012300236E
:10217000DBB20220194603F0CBFA0346002B48D10C
:102180004FF0FF30002107F0D3FA0190019B002BA4
:102190000CBF01230023DBB20320194603F0B8FA79
:1021A0000346002B35D14FF0FF300A2107F040FAEB
:1021B0000190019B002B0CBF01230023DBB2042004
:1021C000194603F0A5FA0346002B22D14FF0FF3049
:1021D0000A2107F06DFA0190019B002B0CBF01232F
:1021E0000023DBB20520194603F092FA0346002BC8
:1021F0000FD14FF0FF300A2107F09AFA0190019BAE
:10220000002B0CBF01230023DBB20620194603F08C
:102210007FFA03B05DF804FB00000000000000003E
:1022200008B5034803494FF4E16206F019FB08BD05
:10223000281C0020F0140020000000000000000016
:1022400000B587B006F0E4FA01AB0020194606F0AD
:102250002FFC0020102106F033FB0590059B002B7E
:1022600014BF01230023DBB20120194603F050FA0A
:102270000346002B40F04881059806F099FB0020AA
:102280006FF0FF0106F01CFB0590059B002B0CBFB7
:1022900001230023DBB20220194603F039FA03467A
:1022A000002B40F0318101AB9948194606F000FC43
:1022B0009748102106F004FB05909548102106F080
:1022C000FFFA04909248102106F0FAFA039005985C
:1022D00006F06EFB049806F06BFB039806F068FBB3
:1022E00002AB8B48194606F0E3FB0346012B0CBFFB
:1022F00001230023DBB20320194603F009FA034649
:10230000002B40F001818248102106F0D9FA059097
:102310007F48102106F0D4FA04907D48102106F081
:10232000CFFA0390039806F043FB049806F040FBB5
:10233000059806F03DFB02AB7548194606F0B8FB60
:102340000346012B0CBF01230023DBB204201946F6
:1023500003F0DEF90346002B40F0D6806C481121D3
:1023600006F0AEFA05906A48102106F0A9FA04902A
:10237000059806F01DFB02AB6548194606F098FB70
:102380000346022B0CBF01230023DBB205201946B4
:1023900003F0BEF90346002B40F0B6805C481021E4
:1023A00006F08EFA059002AB5948194606F080FBFC
:1023B0000346012B07D002AB5548194606F078FBBF
:1023C0000346022B01D1012300E0002303F00103A7
:1023D000DBB20620194603F09BF90346002B40F0C0
:1023E0009380049806F0E4FA059806F0E1FA02AB4F
:1023F0004748194606F05CFB0346012B0CBF01233E
:102400000023DBB20720194603F082F90346002BB4
:102410007AD13F48102106F053FA05903C4810212C
:1024200006F04EFA0490059806F0C2FA02AB38485E
:10243000194606F03DFB0346022B0CBF0123002387
:10244000DBB20820194603F063F90346002B5BD189
:102450002F48202106F034FA0590059806F0A8FAD6
:10246000049806F0A5FA02AB2948194606F020FBAD
:102470000346012B0CBF01230023DBB209201946C0
:1024800003F046F90346002B3ED102AB2048194623
:1024900006F00EFB029B1E48194606F011FA059045
:1024A00002AB1B48194606F003FB0346002B0CBF8A
:1024B00001230023DBB20A20194603F029F9034661
:1024C000002B21D1059806F073FA02AB104819468B
:1024D00006F0EEFA0346012B0CBF01230023DBB20A
:1024E0000B20194603F014F90346002B0CD1029A75
:1024F000019B9A420CBF01230023DBB20C2019463A
:1025000003F006F90346002B07B05DF804FB00BF9B
:10251000281C002000000000000000000000000057
:1025200082B001900023184602B0704700000000FE
:1025300008B503484FF4B471002206F039FB08BD1A
:1025400098080020000000000000000000000000CB
:1025500000B583B03F4B1B683F481946052206F083
:1025600047FB0023019312E03B4806F099FB03462A
:10257000002B14BF01230023DBB20120194603F016
:10258000C7F80346002B61D1019B01330193019BE6
:10259000042BE9DD304806F083FB0346002B0CBF1B
:1025A00001230023DBB20220194603F0B1F80346F1
:1025B000002B4BD1002301930AE0264A019B52F8DD
:1025C00023302548194606F09BFB019B01330193FC
:1025D000019B042BF1DD0023019312E01E4806F05D
:1025E0005FFB0346002B14BF01230023DBB2032053
:1025F000194603F08DF80346002B27D1019B0133C8
:102600000193019B042BE9DD134806F049FB0346C7
:10261000002B0CBF01230023DBB20420194603F07A
:1026200077F80346002B11D10B4810210B4A06F016
:10263000BFFA094806F034FB0346002B0CBF012308
:102640000023DBB20520194603F062F803B05DF801
:1026500004FB00BF20E400089808002021250008A2
:10266000014B9B6918467047300D002000000000A8
:1026700008B5FFF7F5FF03469B68184608BD00BF85
:1026800000B583B00190019B1B78184603F010F849
:1026900003B05DF804FB00BF000000000000000074
:1026A00008B5034803494FF4E16206F0D9F808BDC4
:1026B000481C0020F0140020000000000000000072
:1026C00000B587B0FFF7D4FF059002AB424819462A
:1026D00006F0EEF9059B5A1E404B00933E484FF41E
:1026E000B4713F4B07F07CFF02463E4B1A60059BDE
:1026F0009A1E3D4B009338484FF4B471384B07F0A5
:102700006FFF0246374B5A6003AB3348194606F059
:10271000CFF9039B3048194606F0D2F80490059B88
:10272000DA1E324B00932C484FF4B4712C4B07F057
:1027300057FF02462B4B9A60049806F039F9294B53
:102740001B68002B11D0274B5B68002B0DD0254B4D
:102750009B68002B09D1234BDB68002B05D1214B53
:102760001B69002B01D1012300E0002303F00103CA
:10277000DBB20120194602F0CBFF0346002B27D124
:1027800003F046F802201A4902F0DAFF0346002B54
:102790001ED103AB1048194606F08AF90346012BF7
:1027A0000CBF01230023DBB20320194602F0B0FF67
:1027B0000346002B0CD1039A029B9A420CBF0123C3
:1027C0000023DBB20420194602F0A2FF0346002BCF
:1027D00007B05DF804FB00BF481C002040D800088B
:1027E00081260008F81B002044D8000848D80008BB
:1027F0004CD80008000000000000000000000000AD
:1028000008B503484FF4B471002206F0D1F908BDB1
:10281000681C002000000000000000000000000014
:1028200000B583B0FFF724FF0090002301930AE076
:102830004B4A019B52F823304A48194606F060FA89
:10284000019B01330193019B032BF1DD009B013BB5
:1028500044481946444A454B07F002FF0246444BA0
:102860001A60009B023B3F4819463F4A414B07F024
:10287000F7FE02463E4B5A60009B033B394819461F
:10288000394A3D4B07F0ECFE0246394B9A60009BFB
:10289000043B34481946344A384B07F0E1FE0246FF
:1028A000334BDA60009B053B2E4819462E4A344BC9
:1028B00007F0D6FE02462E4B1A612D4B1B68002BEB
:1028C00011D02B4B5B68002B0DD0294B9B68002B44
:1028D00009D0274BDB68002B05D0254B1B69002B4B
:1028E00001D1012300E0002303F00103DBB201204A
:1028F000194602F00DFF0346002B2ED102F088FF8F
:102900000220204902F01CFF0346002B25D10023A2
:10291000019312E0134806F0C3F90346002B14BFDD
:1029200001230023DBB20320194602F0F1FE034627
:10293000002B12D1019B01330193019B032BE9DD95
:10294000084806F0ADF90346002B0CBF0123002315
:10295000DBB20420194602F0DBFE03B05DF804FB95
:1029600020E40008681C00208126000840D80008E8
:10297000F81B002044D8000848D8000850D80008A8
:1029800054D8000858D800080000000000000000DB
:1029900000B585B0019000238DF80B3007F0E8FEFC
:1029A00003909DF80B300399019A91420CBF0122CC
:1029B0000022D2B21343002B14BF012300238DF851
:1029C0000B30039807F0ECFE0390039B002BE8D13B
:1029D0009DF80B30184605B05DF804FB00000000C0
:1029E00008B5034803494FF4E16205F039FF08BD1B
:1029F000481C0020F014002000000000000000002F
:102A000000B585B0FFF734FE0390039B5A1E5F4B61
:102A100000935F484FF4B4715E4B07F0E1FD029004
:102A2000029B93F82230012B0CBF01230023DBB261
:102A30000120194602F06CFE0346002B40F0A380F3
:102A4000029807F055FD029B93F82230022B0CBF31
:102A500001230023DBB20220194602F059FE03468F
:102A6000002B40F09080029807F062FD029B93F8E3
:102A70002230012B0CBF01230023DBB203201946B7
:102A800002F046FE0346002B7DD10298FFF780FF3F
:102A900003460420194602F03BFE0346002B72D188
:102AA0000298FFF775FF03460520194602F030FE35
:102AB0000346002B67D1029807F03AFD029B93F87A
:102AC0002230002B0CBF01230023DBB20620194665
:102AD00002F01EFE0346002B55D1029B93F82030D6
:102AE000002B0CBF01230023DBB20720194602F0A4
:102AF0000FFE0346002B46D10298FFF749FF03461D
:102B00000820194602F004FE0346002B3BD1029830
:102B1000FFF73EFF03460920194602F0F9FD034680
:102B2000002B30D14FF4FA700AF0FAF8029B93F8B8
:102B300020300F2B0CBF01230023DBB20A201946E3
:102B400002F0E6FD0346002B1DD10298FFF720FF9F
:102B500003460B20194602F0DBFD0346002B12D181
:102B60000298FFF715FF0346002B14BF0123002333
:102B7000DBB283F00103DBB203F00103DBB20C2014
:102B8000194602F0C5FD05B05DF804FB40D8000809
:102B9000481C002081260008000000000000000002
:102BA00082B020230193019B83F3118802B0704708
:102BB00082B000230193019B83F3118802B0704718
:102BC00008B5FFF7EDFF07F03BFC09F0E9F808BD99
:102BD00008B509F0FDF807F03BFC094B1B68084AF3
:102BE00093420AD0064B9B699A68054B1B689B6809
:102BF0009A4202D2034808F07BFFFFF7D9FF08BDD5
:102C0000300D002020E70008000000000000000058
:102C1000014B9B6918467047300D002000000000F2
:102C200008B5FFF7F5FF03469B68184608BD00BFCF
:102C300000B583B0019009F053F9019B9B681846D9
:102C400003B05DF804FB00BF0000000000000000BE
:102C500000B583B0019009F043F9019B9B68002BFC
:102C60000CBF01230023DBB2184603B05DF804FB60
:102C700000B583B0019009F033F9019B5A69019BBB
:102C80009B699A4205D1019B9B68002B01D00123CF
:102C900000E0002303F00103DBB2184603B05DF847
:102CA00004FB00BF00000000000000000000000066
:102CB00000B583B0019001984FF0FF3107F048FA5A
:102CC0000346184603B05DF804FB00BF0000000097
:102CD00000B583B0019009F003F9019B1B691A4606
:102CE000019BDB68D31A1A46019B9B68D31A1846CE
:102CF00003B05DF804FB00BF00000000000000000E
:102D000000B583B0019009F0EBF8019B5A69019B73
:102D10009B699A4205D1019B9B68002B01D001233E
:102D200000E0002303F00103DBB2184603B05DF8B6
:102D300004FB00BF000000000000000000000000D5
:102D400000B583B0019009F0CBF8019B9B68002B84
:102D50000CBF01230023DBB2184603B05DF804FB6F
:102D600000B583B001900B468DF803309DF8033019
:102D7000019819464FF0FF3205F0EAFB034618466A
:102D800003B05DF804FB00BF00000000000000007D
:102D900082B0019002B07047000000000000000007
:102DA00000B583B0064B1A6800230093054811460E
:102DB0000422054B07F04CF903B05DF804FB00BF9B
:102DC00020E40008A4080020912D00080000000065
:102DD00000B583B0019004484FF4FA6107F0B8F9E8
:102DE00003B05DF804FB00BFA40800200000000051
:102DF00010B584B0FFF7E4FEB448FFF729FF03469F
:102E00000120194602F084FC0346002B02D0FFF794
:102E1000DFFE59E1FFF7DCFEFFF7D2FE002303934C
:102E20000AE0039BDBB24133DBB2A848194607F046
:102E300057F9039B01330393039B032BF1D9FFF74E
:102E4000C7FEFFF7BDFEA148FFF712FF03460220B1
:102E5000194602F05DFC0346002B02D0FFF7B8FED6
:102E600032E1FFF7B5FEFFF7ABFE9848002107F00F
:102E700037F9034613F1040F0CBF01230023DBB223
:102E80000320194602F044FC0346002B02D0FFF752
:102E90009FFE19E1FFF79CFE002303930AE08B4895
:102EA000FFF706FF0346DBB2184602F001FC039B66
:102EB00001330393039B032BF1D9FFF781FE834872
:102EC000FFF7C6FE03460420194602F021FC034624
:102ED000002B02D0FFF77CFEF6E0FFF779FE05201D
:102EE0007B4902F02DFC0346002B40F0ED80FFF7FC
:102EF00067FE002303930AE0039BDBB24133DBB29E
:102F00007248194607F0ECF8039B01330393039BC7
:102F1000032BF1D9FFF75CFE6E4B5B686B481946DB
:102F20000822002307F05CF90290029B042B0CBFDF
:102F300001230023DBB20620194602F0E9FB034619
:102F4000002B40F0C180FFF73BFE6048FFF780FE9A
:102F500003460720194602F0DBFB0346002B02D094
:102F6000FFF736FEB0E0FFF733FEFFF729FE002340
:102F700003930AE0039BDBB24133DBB253481946AB
:102F800007F0AEF8039B01330393039B032BF1D9A6
:102F9000FFF71EFE4F4B5B684C4819460222002388
:102FA00007F01EF90290029B022B0CBF01230023A5
:102FB000DBB20820194602F0ABFB0346002B40F0C1
:102FC0008380444B5B68414819460222002307F086
:102FD00007F90290029B022B0CBF01230023DBB2F6
:102FE0000920194602F094FB0346002B6CD1FFF731
:102FF000E7FD3648FFF72CFE03460A20194602F08B
:1030000087FB0346002B02D0FFF7E2FD5CE0FFF7F1
:10301000DFFDFFF7D5FD2D48002107F061F82B48B3
:1030200007F03EF8FFF7D4FDFFF7CAFD2748FFF78A
:10303000FFFD0346002B0CBF01230023DBB20B2056
:10304000194602F065FB0346002B02D0FFF7C0FDD6
:103050003AE0FFF7BDFD1F4B1C68FFF7E1FD03469B
:103060005A1C0023009320464FF4B4711A4B09F008
:10307000C7FD0246194B1A60FFF7A2FD1348FFF780
:10308000D7FD0346002B0CBF01230023DBB20C202D
:10309000194602F03DFB0346002B02D0FFF798FDD6
:1030A00012E0FFF795FD02F0B3FB08480A2107F094
:1030B0004FF80346B3F1FF3F0CBF01230023DBB2FF
:1030C0000D20194602F024FB04B010BDA408002016
:1030D00058D8000820E40008D12D0008F81B002073
:1030E00008B503480349052206F0C2FC08BD00BF2D
:1030F00068080020F014002000000000000000001C
:1031000000B585B001F0ECFF754802F021F80346E8
:10311000052B0CBF01230023DBB20120194602F06E
:10312000F7FA0346002B02D001F0E2FFF0E301F0D2
:10313000DFFF0023039319E0039B423368481946DD
:103140004FF0FF3206F00CFD0290029B002B0CBFEB
:1031500001230023DBB20220194602F0D9FA03460C
:10316000002B40F0D583039B01330393039B032B78
:10317000E2D95B4841214FF0FF3206F081FD029019
:10318000029B002B0CBF01230023DBB20320194656
:1031900002F0BEFA0346002B40F0BA835048582193
:1031A000012206F0DDFC0290029BB3F1FF3F0CBF51
:1031B00001230023DBB20420194602F0A9FA0346DA
:1031C000002B40F0A58301F08BFF4548582106F005
:1031D00017FD029001F08CFF029BB3F1FF3F0CBF83
:1031E00001230023DBB20520194602F091FA0346C1
:1031F000002B40F08D833A485821012206F040FD13
:103200000290029BB3F1FF3F0CBF01230023DBB20E
:103210000620194602F07CFA0346002B40F0788322
:1032200001F05EFF2E48582106F082FD029001F069
:103230005FFF029BB3F1FF3F0CBF01230023DBB212
:103240000720194602F064FA0346002B40F0608321
:1032500001F046FF224801F07BFF0346002B0CBF24
:1032600001230023DBB20820194602F051FA03467D
:10327000002B02D001F03CFF4AE301F039FF01F0DE
:103280002FFF174801F074FF0346052B0CBF0123E5
:103290000023DBB20920194602F03AFA0346002B5C
:1032A00002D001F025FF33E301F022FF01F018FF07
:1032B0000B4BDA680A4B9B689A420CBF0123002330
:1032C000DBB20A20194602F023FA0346002B02D093
:1032D00001F00EFF1CE301F00BFF002303931FE03E
:1032E0006808002001ABB14819464FF0FF3206F0E4
:1032F0005FFD0290029B002B0CBF01230023DBB279
:103300000B20194602F004FA0346002B40F000831C
:10331000019BDBB2184602F0CBF9039B0133039308
:10332000039B042BDED90C20A14902F009FA0346C5
:10333000002B40F0ED82039B42339C4819464FF02E
:10334000FF3206F00DFC0290029B002B0CBF012304
:103350000023DBB20D20194602F0DAF90346002BF8
:1033600040F0D68201AB914819464FF0FF3206F08B
:103370001FFD0290029B002B0CBF01230023DBB238
:103380000E20194602F0C4F90346002B40F0C0821B
:10339000864B1A68854B9B689A420CBF0123002319
:1033A000DBB20F20194602F0B3F90346002B40F0C0
:1033B000AF827E4B1A687D4BDB689A420CBF0123BB
:1033C0000023DBB21020194602F0A2F90346002BBD
:1033D00040F09E8201AB75481946012206F0E8FCD8
:1033E0000290029BB3F1FF3F0CBF01230023DBB22D
:1033F0001120194602F08CF90346002B40F0888218
:1034000001F06EFE01AB6948194606F029FD0290F5
:1034100001F06EFE029BB3F1FF3F0CBF01230023BE
:10342000DBB21220194602F073F90346002B40F07C
:103430006F8201F055FE5D4801F08AFE0346052BC0
:103440000CBF01230023DBB21320194602F060F900
:103450000346002B02D001F04BFE59E201F048FE7A
:1034600001F03EFE514801F083FE0346002B0CBFE5
:1034700001230023DBB21420194602F049F9034668
:10348000002B02D001F034FE42E201F031FE01F0E7
:1034900027FE464BDA68454B9B689A420CBF0123D6
:1034A0000023DBB21520194602F032F90346002B47
:1034B00002D001F01DFE2BE201F01AFE01F010FE19
:1034C0003A48412106F09CFB0290029B002B0CBF66
:1034D00001230023DBB21620194602F019F9034636
:1034E000002B40F015823148422106F089FB029002
:1034F000029B002B0CBF01230023DBB217201946CF
:1035000002F006F90346002B40F0028227484321CF
:1035100006F076FB0290029B002B0CBF01230023D8
:10352000DBB21820194602F0F3F80346002B40F0F6
:10353000EF811E48442106F063FB0290029B002BA2
:103540000CBF01230023DBB21920194602F0E0F87A
:103550000346002B40F0DC811448452106F050FB67
:10356000029001F0C5FD029B002B0CBF012300233C
:10357000DBB21A20194602F0CBF80346002B40F0CC
:10358000C7810A4BDA68094B9B689A420CBF01233A
:103590000023DBB21B20194602F0BAF80346002BC9
:1035A00040F0B6810023039324E000BF68080020A8
:1035B00060D8000801F094FD01ABBB48194606F045
:1035C0004FFC029001F094FD029B002B0CBF0123E5
:1035D0000023DBB21C20194602F09AF80346002BA8
:1035E00040F09681019BDBB2184602F061F8039B24
:1035F00001330393039B042BDCD91D20AB4902F05C
:103600009FF80346002B40F0838101F069FDA64836
:1036100001F09EFD0346052B0CBF01230023DBB206
:103620001E20194602F074F80346002B02D001F068
:103630005FFD6DE101F05CFD01F052FD9A4801F083
:1036400097FD0346002B0CBF01230023DBB21F2094
:10365000194602F05DF80346002B02D001F048FD48
:1036600056E101F045FD904BDA688F4B9B689A421A
:103670000CBF01230023DBB22020194602F048F8DA
:103680000346002B40F0448101F02AFD8648452185
:1036900006F04EFB0290029B002B0CBF012300237F
:1036A000DBB22120194602F033F80346002B40F02C
:1036B0002F817D48442106F03BFB0290029B002BAA
:1036C0000CBF01230023DBB22220194602F020F8B0
:1036D0000346002B40F01C817348432106F028FB71
:1036E0000290029B002B0CBF01230023DBB223209E
:1036F000194602F00DF80346002B40F009816A4894
:10370000422106F015FB0290029B002B0CBF012307
:103710000023DBB22420194601F0FAFF0346002BF8
:1037200040F0F6806048412106F002FB029001F073
:10373000DFFC029B002B0CBF01230023DBB2252002
:10374000194601F0E5FF0346002B40F0E180564B9F
:10375000DA68554B9B689A420CBF01230023DBB209
:103760002620194601F0D4FF0346002B40F0D080FC
:10377000002303931FE001F0B3FC01AB4A48194654
:1037800006F06EFB029001F0B3FC029B002B0CBF15
:1037900001230023DBB22720194601F0B9FF0346BD
:1037A000002B40F0B580019BDBB2184601F080FF92
:1037B000039B01330393039B042BDCD928203B4953
:1037C00001F0BEFF0346002B40F0A28001F088FC10
:1037D000354801F0BDFC0346052B0CBF0123002337
:1037E000DBB22920194601F093FF0346002B02D0DB
:1037F00001F07EFC8CE001F07BFC01F071FC2A48BA
:1038000001F0B6FC0346002B0CBF01230023DBB202
:103810002A20194601F07CFF0346002B02D001F05C
:1038200067FC75E001F064FC1F4BDA681E4B9B6877
:103830009A420CBF01230023DBB22B20194601F072
:1038400067FF0346002B63D1174806F049F901F0E2
:1038500047FC154801F07CFC0346052B0CBF0123F7
:103860000023DBB22C20194601F052FF0346002B47
:1038700002D001F03DFC4BE001F03AFC01F030FCDD
:10388000094801F075FC0346002B0CBF01230023FF
:10389000DBB22D20194601F03BFF0346002B07D079
:1038A00001F026FC34E000BF6808002060D8000862
:1038B00001F01EFC01F014FC174B1A68164B9B68B4
:1038C0009A420CBF01230023DBB22E20194601F0DF
:1038D0001FFF0346002B02D001F00AFC18E001F0A4
:1038E00007FC01F0FDFB0C4B1A680B4BDB689A429E
:1038F0000CBF01230023DBB22F20194601F008FF83
:103900000346002B02D001F0F3FB01E001F0F0FBD5
:1039100005B05DF804FB00BF68080020000000004F
:1039200082B020230193019B83F3118802B070477A
:1039300082B000230193019B83F3118802B070478A
:103940004FF080435B6A1846704700BF00000000DC
:1039500008B5FFF7F5FF0346184608BD0000000054
:1039600008B5FFF7DDFF06F06BFD08F019FA08BD9A
:1039700008B508F02DFA06F06BFD094B1B68084AE4
:1039800093420AD0064B9B699A68054B1B689B685B
:103990009A4202D2034808F0ABF8FFF7C9FF08BD0E
:1039A000300D002060E6000800000000000000006C
:1039B00008B5FFF7CDFF0346184608BD000000001C
:1039C00000B583B0FFF7CCFFFFF7F2FF0190FFF7E0
:1039D000CFFF019B184603B05DF804FB0000000018
:1039E000014B9B6918467047300D00200000000015
:1039F00008B5FFF7F5FF03469B68184608BD00BFF2
:103A000082B00190019B019A1A6002B0704700BF1A
:103A100000B585B003900291019203980299019A32
:103A20004FF0FF3305F0F4FB05B05DF804FB00BF79
:103A300082B00190019B1A68019B9A4214BF012336
:103A40000023DBB2184602B0704700BF0000000040
:103A500000B583B001900198002105F009FD03B085
:103A60005DF804FB00000000000000000000000002
:103A700008B54FF0FF3005F02BFC08BD000000003A
:103A800000B583B00190412001F012FE03B05DF853
:103A900004FB00BF00000000000000000000000068
:103AA00000B583B00190422001F002FE03B05DF842
:103AB00004FB00BF00000000000000000000000048
:103AC00000B583B00190432001F0F2FD03B05DF832
:103AD00004FB00BF00000000000000000000000028
:103AE00000B58BB02848FFF78BFF05AB2648194679
:103AF0000122FFF78DFF6B46234819460222FFF78C
:103B000087FF2148FFF794FF03460120194601F083
:103B1000FFFD0346002B34D105AB1B48194605F0C9
:103B2000A7FB1948FFF784FF03460220194601F05E
:103B3000EFFD0346002B24D16B461348194605F0D0
:103B400097FB1148FFF774FF0346002B14BF0123B6
:103B50000023DBB283F00103DBB203F00103DBB22D
:103B60000320194601F0D4FD0346002B09D1074874
:103B7000072105F095FC0420054901F0E1FD03460D
:103B8000002B0BB05DF804FB9008002010E6000845
:103B900068D80008000000000000000000000000DD
:103BA00008B54FF0FF3005F093FB08BD00000000A2
:103BB00000B583B001904FF4FA7009F0B1F80198A4
:103BC000012105F0FDFB03B05DF804FB00000000DF
:103BD00000B583B001900648FFF73AFF4FF4FA7042
:103BE00009F09EF80348FFF733FF03B05DF804FBCC
:103BF0009008002094080020000000000000000051
:103C000030B58FB0072005F083FB4FF0FF3005F093
:103C100087FC0D900D9B012B0CBF01230023DBB211
:103C20000120194601F074FD0346002B40F082810B
:103C30004FF0FF3005F074FC0D900D9B022B0CBF74
:103C400001230023DBB20220194601F061FD034687
:103C5000002B40F06F814FF0FF3005F061FC0D90BC
:103C60000D9B042B0CBF01230023DBB2032019465C
:103C700001F04EFD0346002B40F05C814FF0FF3019
:103C800005F026FB0D900D9B002B0CBF012300239C
:103C9000DBB20420194601F03BFD0346002B40F047
:103CA000498101F0DDFDFFF78BFE034603F5FA7352
:103CB0000C93A14B1D68FFF79BFE03465C1EFFF7AC
:103CC0008FFE0346009328464FF4B47122469B4B67
:103CD00008F096FF02469A4B1A604FF0FF3005F04D
:103CE0001FFC0D900C9B323305200C991A4601F0F5
:103CF00057FD0346002B40F01D810D9B012B0CBF8F
:103D000001230023DBB20620194601F001FD034622
:103D1000002B40F00F814FF0FF3005F0D9FA0D90E5
:103D20000D9B002B0CBF01230023DBB2072019469B
:103D300001F0EEFC0346002B40F0FC8001F068FD32
:103D4000052005F0E5FA4FF0FF3005F019FC0D9065
:103D50000D9B052B0CBF01230023DBB20820194665
:103D600001F0D6FC0346002B40F0E4804FF0FF301A
:103D700005F0AEFA0D900D9B002B0CBF0123002324
:103D8000DBB20920194601F0C3FC0346002B40F0CA
:103D9000D18001F065FDFFF713FE034603F5FA73CA
:103DA0000C93654B1D68FFF723FE03465C1EFFF76F
:103DB00017FE0346009328464FF4B47122465F4B2A
:103DC00008F01EFF02465E4B1A604FF0FF3005F010
:103DD000D7FB0D900C9B32330A200C991A4601F048
:103DE000DFFC0346002B40F0A5800D9B012B0CBF90
:103DF00001230023DBB20B20194601F089FC0346A6
:103E0000002B40F097804FF0FF3005F061FA0D90E5
:103E10000D9B002B0CBF01230023DBB20C201946A5
:103E200001F076FC0346002B40F0848001F0F0FCAA
:103E30004448FFF7E5FD4448FFF7E2FD07AB414882
:103E400019460122FFF7E4FD02AB3F481946042260
:103E5000FFF7DEFD01F004FDFFF7B2FD034603F5B9
:103E6000FA730C93344B1C68FFF7C2FD03465A1ECD
:103E7000364B009320464FF4B471354B08F0C0FE2A
:103E800002462F4B1A60052005F0AAFB0D900C9BF3
:103E900032330D200C991A4601F082FC0346002BA8
:103EA00048D14FF0FF3005F013FA0D900D9B002B19
:103EB0000CBF01230023DBB20E20194601F028FCC1
:103EC0000346002B36D101F0A3FC07AB1D48194671
:103ED00005F0CEF902AB1C48194605F0C9F919489E
:103EE000FFF7A6FD0346002B14BF01230023DBB21E
:103EF00083F00103DBB203F00103DBB20F201946AC
:103F000001F006FC0346002B14D10F48FFF790FD8B
:103F10000346002B14BF01230023DBB283F001030F
:103F2000DBB203F00103DBB21020194601F0F0FB15
:103F30000346002B0FB030BD20E40008B13B000861
:103F4000F81B002090080020940800206CD800087E
:103F5000D13B00080000000000000000000000004D
:103F600010B582B0514B1C6802F05AF903465A1D35
:103F70004F4B009320464FF4B4714E4B08F040FE77
:103F800002464D4B1A60494B5C6802F049F9034602
:103F90005A1C4A4B009320464FF4B471454B08F02D
:103FA0002FFE0246444B5A60404B9C6802F038F9A1
:103FB0000346DA1C424B009320464FF4B4713D4B4C
:103FC00008F01EFE02463C4B9A60384BDC6802F05B
:103FD00027F903461A1D3B4B009320464FF4B4715A
:103FE000344B08F00DFE0246334BDA602F4B1C6950
:103FF00002F016F903469A1C334B009320464FF407
:10400000B4712C4B08F0FCFD02462B4B1A612F4873
:1040100006F006FE2D4806F003FE2C4806F000FED2
:104020002A4806F0FDFD294806F0FAFD01F0F0FBF4
:104030000120274901F084FB0346002B33D11B4BA1
:104040001C6802F0EDF803465A1D194B00932046F8
:104050004FF4B471174B08F0D3FD0246164B1A60AB
:1040600002F096F81948022106F06AFE08F010FBEB
:1040700002F096F801F0CCFB02F08AF8134802F047
:10408000D7F80346012B0CBF01230023DBB202202B
:10409000194601F03DFB0346002B02D002F080F8E8
:1040A00001E002F07DF802B010BD00BF20E400087E
:1040B00070D8000841630008F81B002074D800087D
:1040C00078D800087CD8000880D800083408002080
:1040D00084D800080000000000000000000000007C
:1040E00008B50248002106F03BFC08BD340800205A
:1040F00000B583B001904FF4FA7008F011FE02F0A1
:1041000047F8054806F0D4FD08F0C2FA02F048F876
:1041100003B05DF804FB00BF34080020000000007D
:1041200010B586B06148002106F002FD0490049BA2
:10413000B3F1FF3F0CBF01230023DBB2012019467E
:1041400001F0E6FA0346002B40F0AD80574802F03C
:104150000FF803460220194601F0DAFA0346002B55
:1041600040F0A180514B9B68002B0CBF0123002322
:10417000DBB20320194601F0CBFA0346002B40F0D6
:1041800092804B4B1C6802F04BF803465A1E0023EA
:10419000009320464FF4B471464B08F031FD0246BF
:1041A000454B1A60414841F2883106F0C1FC049049
:1041B00001F02EFB049B002B0CBF01230023DBB27C
:1041C0000420194601F0A4FA0346002B6BD13748AE
:1041D00001F0CEFF03460520194601F099FA034687
:1041E000002B60D1314B9B68002B0CBF01230023B7
:1041F000DBB20620194601F08BFA0346002B52D1A0
:1042000001F02EFB01F0F4FF034603F6C413039301
:104210000023059336E0059BDBB24133DBB2184641
:1042200001F046FA21484FF4FA7106F081FC04903F
:10423000049BB3F1FF3F0CBF01230023DBB2072037
:10424000194601F065FA0346002B2CD1174801F0FE
:104250008FFF03460820194601F05AFA0346002B47
:1042600021D1124B9B68002B0CBF01230023DBB232
:104270000920194601F04CFA0346002B13D1059B87
:1042800001330593059B042BC5DD0A200B4901F082
:1042900057FA0346002B06D1039B14330B200399D6
:1042A0001A4601F07DFA06B010BD00BF34080020A8
:1042B00020E40008F1400008F81B002084D8000822
:1042C00008B50248002106F04BFB08BD3408002069
:1042D00000B583B00190044806F0CAFB024806F01E
:1042E0009FFC03B05DF804FB3408002000000000D0
:1042F00010B582B0244B1C6801F092FF03465A1C93
:104300000023009320464FF4B471204B08F078FC52
:1043100002461F4B1A601F481E4906F061FD1D48EA
:1043200001F026FF03460120194601F0F1F903468A
:10433000002B27D1174B9B68002B0CBF01230023B8
:10434000DBB20220194601F0E3F90346002B19D134
:104350001048104906F044FD0E4801F009FF0346DD
:104360000320194601F0D4F90346002B0AD1094B6A
:104370009B68002B0CBF01230023DBB204201946ED
:1043800001F0C6F902B010BD20E40008D1420008D7
:10439000F81B00203408002000000000000000008E
:1043A00000B583B00190019801F0A2FF03B05DF861
:1043B00004FB00BF0000000000000000000000003F
:1043C00010B586B003AB1846012101F041FF03ABE5
:1043D0001846012101F064FF01F0DAFE03AB184634
:1043E00001F096FF0346002B14BF01230023DBB22C
:1043F0000120194601F08CF90346002B02D001F090
:10440000CFFEA2E001F0CCFE514B1C6801F008FF8A
:1044100003465A1E03AB009320464FF4B4714D4B34
:1044200008F0EEFB02464C4B1A6003AB184601F055
:1044300027FF01F0ADFE03AB184601F069FF03460C
:10444000002B14BF01230023DBB20220194601F028
:104450005FF90346002B02D001F0A2FE75E001F0E7
:104460009FFE03AB184601F043FF01F091FE03AB42
:10447000184601F04DFF0346002B14BF0123002313
:10448000DBB283F00103DBB203F00103DBB20320F4
:10449000194601F03DF90346002B02D001F080FEE1
:1044A00053E001F07DFE01F073FE03AB184601F00E
:1044B000BFFE0346012B0CBF01230023DBB2042007
:1044C000194601F025F90346002B02D001F068FEE1
:1044D0003BE001F065FE03AB184601F009FF01F077
:1044E00057FE03AB184601F013FF0346002B14BF21
:1044F00001230023DBB283F00103DBB203F00103ED
:10450000DBB20320194601F003F90346002B02D069
:1045100001F046FE19E001F043FE01F039FE03AB65
:10452000184601F085FE0346012B0CBF0123002332
:10453000DBB20520194601F0EBF80346002B02D050
:1045400001F02EFE01E001F02BFE06B010BD00BF11
:1045500020E40008A1430008F81B00200000000030
:1045600082B020230193019B83F3118802B070472E
:1045700082B000230193019B83F3118802B070473E
:1045800082B00190019B1A68019B9A420CBF0123E3
:104590000023DBB2184602B0704700BF00000000E5
:1045A00008B5FFF7DDFF05F04BFF07F0F9FB08BD8D
:1045B00008B507F00DFC05F04BFF094B1B68084AD6
:1045C00093420AD0064B9B699A68054B1B689B680F
:1045D0009A4202D2034807F08BFAFFF7C9FF08BDE1
:1045E000300D0020B0E500080000000000000000D1
:1045F000014B9B6918467047300D002000000000F9
:1046000008B5FFF7F5FF03469B68184608BD00BFD5
:1046100008B5024806F02CFD08BD00BF4008002088
:1046200000B583B00190074806F03AFD019B1B7866
:10463000184601F03DF8034806F002FE03B05DF8AD
:1046400004FB00BF40080020000000000000000044
:1046500000B585B0FFF7D4FF0390354806F020FD84
:10466000344B1968039B5A1C334B009308464FF494
:10467000B471324B08F0C4FA0246314B1A602D4B2C
:104680005968039B9A1C2F4B009308464FF4B47152
:104690002A4B08F0B5FA0246294B5A60254B996817
:1046A000039BDA1C284B009308464FF4B471234B4C
:1046B00008F0A6FA0246224B9A601E4BD968039B6B
:1046C0001A1D224B009308464FF4B4711B4B08F09F
:1046D00097FA02461A4BDA60164B1969039B5A1D6A
:1046E0001B4B009308464FF4B471144B08F088FA42
:1046F0000246134B1A610E4806F0A2FD01F088F83D
:10470000FFF77EFF0246039B9A420CBF0123002362
:10471000DBB20120194600F0FBFF0346002B03D15A
:1047200002200C4901F00CF805B05DF804FB00BF55
:104730004008002020E4000880D800082146000836
:10474000F81B00207CD8000878D8000874D800082E
:1047500070D8000884D800080000000000000000A5
:1047600008B5034806F084FC024806F081FC08BD49
:104770004008002050080020000000000000000059
:1047800000B583B001904FF4FA7008F0C9FA0448FC
:1047900006F086FC024806F053FD03B05DF804FB0A
:1047A0005008002000000000000000000000000091
:1047B00000B583B0019040F2DC5008F0B1FA044833
:1047C00006F06EFC024806F03BFD03B05DF804FB0A
:1047D0004008002000000000000000000000000071
:1047E00000B587B0FFF70CFF0590059B01330493DC
:1047F000059B02330393AD4B1A68AD4B00931046F3
:104800004FF4B471049AAB4B08F0FAF90246AA4B84
:104810001A60A64B5A68A94B009310464FF4B47126
:10482000039AA74B08F0ECF90246A34B5A60A5483F
:1048300006F036FCFFF7E4FE0246059B9A420CBFE9
:1048400001230023DBB20120194600F061FF03467B
:10485000002B40F027814FF47A7008F061FAFFF7DF
:10486000CFFE0246049B9A420CBF01230023DBB219
:104870000220194600F04CFF0346002B40F0128145
:10488000914806F00DFCFFF7BBFE0246049B9A42DE
:104890000CBF01230023DBB20320194600F038FFD0
:1048A0000346002B40F0FE804FF47A7008F038FA8F
:1048B000FFF7A6FE0246039B9A420CBF012300238A
:1048C000DBB20420194600F023FF0346002B40F022
:1048D000E9807D4806F0B4FCFFF792FE0246049B97
:1048E0009A420CBF01230023DBB20520194600F0D9
:1048F0000FFF0346002B40F0D5804FF47A7008F08C
:104900000FFAFFF77DFE0246049B9A420CBF01237B
:104910000023DBB20620194600F0FAFE0346002B06
:1049200040F0C08006F074FDFFF76AFE0246059B6A
:104930009A420CBF01230023DBB20720194600F086
:10494000E7FE0346002B40F0AD8000F061FF574BBF
:104950001A685E4B009310464FF4B471049A554B9D
:1049600008F04EF90246544B1A60504B5A68584BA7
:10497000009310464FF4B471039A514B08F040F97C
:1049800002464D4B5A604F4806F08AFBFFF738FE4F
:104990000246059B9A420CBF01230023DBB208208C
:1049A000194600F0B5FE0346002B7BD14FF47A7018
:1049B00008F0B6F9FFF724FE0246049B9A420CBFAA
:1049C00001230023DBB20920194600F0A1FE0346B3
:1049D000002B67D13C4806F063FBFFF711FE02464F
:1049E000049B9A420CBF01230023DBB20A20194624
:1049F00000F08EFE0346002B54D14FF47A7008F07D
:104A00008FF9FFF7FDFD0246039B9A420CBF01237D
:104A10000023DBB20B20194600F07AFE0346002B80
:104A200040D1FFF7BDFD284806F082FC07F030FEBC
:104A3000FFF7BEFDFFF7E4FD0246049B9A420CBF60
:104A400001230023DBB20C20194600F061FE03466F
:104A5000002B27D14FF47A7008F062F9FFF7D0FDF0
:104A60000246049B9A420CBF01230023DBB20D20B7
:104A7000194600F04DFE0346002B13D106F0C8FC8A
:104A8000FFF7BEFD0246059B9A420CBF012300239F
:104A9000DBB20E20194600F03BFE0346002B01D18D
:104AA00000F0B6FE07B05DF804FB00BF20E400088C
:104AB00074D8000881470008F81B002070D800084F
:104AC000B147000850080020400800207CD80008AA
:104AD00078D800080000000000000000000000007E
:104AE00008B5024806F0C4FA08BD00BF400800201F
:104AF00000B583B0FFF784FD01903B4806F060FBF2
:104B000003468DF803309DF803300120194600F06C
:104B1000FFFD0346002B64D1334806F051FB0346EA
:104B20008DF803309DF80330002B14BF01230023C0
:104B3000DBB283F00103DBB203F00103DBB202203E
:104B4000194600F0E5FD0346002B4AD1FFF728FD8A
:104B5000254806F0EDFBFFF72BFD2348FFF710FD7E
:104B600003460320194600F0D3FD0346002B38D13D
:104B70001D4B9B68002B0CBF01230023DBB20420DC
:104B8000194600F0C5FD0346002B2AD1FFF738FD7A
:104B90000246019B9A420CBF01230023DBB2052091
:104BA000194600F0B5FD0346002B1AD10E4806F059
:104BB00077FA06F02DFC0C48FFF7E2FC03460620CE
:104BC000194600F0A5FD0346002B0AD1064B9B6851
:104BD000002B0CBF01230023DBB20720194600F095
:104BE00097FD03B05DF804FB4008002000000000C2
:104BF00008B5034804F094F9024806F039FA08BDF4
:104C000060080020400800200000000000000000B4
:104C100000B583B00190084806F042FA074804F056
:104C20001FFA019B1B78184600F042FD024806F06F
:104C300007FB03B05DF804FB40080020600800207B
:104C400000B585B0FFF7DCFC0390344B1968039B7B
:104C50005A1C334B009308464FF4B471314B07F0A4
:104C6000CFFF0246304B1A602C4B5968039B9A1CAD
:104C70002E4B009308464FF4B4712A4B07F0C0FF47
:104C80000246294B5A60254B9968039BDA1C284B36
:104C9000009308464FF4B471224B07F0B1FF02466F
:104CA000214B9A601D4BD968039B1A1D214B009321
:104CB00008464FF4B4711B4B07F0A2FF02461A4B93
:104CC000DA60164B1969039B5A1D1B4B009308466B
:104CD0004FF4B471134B07F093FF0246124B1A6165
:104CE000FFF75EFC154804F05BF9144804F058F92E
:104CF000124804F055F9114804F052F90F4804F035
:104D00004FF907F0C5FCFFF753FC00F081FD0120CF
:104D10000B4900F015FD05B05DF804FB20E4000828
:104D200080D80008114C0008F81B00207CD800082F
:104D300078D8000874D8000870D8000860080020EF
:104D400084D80008000000000000000000000000FF
:104D500008B5034804F0E4F8024806F089F908BDF4
:104D60006008002040080020000000000000000053
:104D700000B585B0FFF744FC03902B4B1968039BEB
:104D80005A1C2A4B009308464FF4B471284B07F085
:104D900037FF0246274B1A60234B5968039B9A1C26
:104DA000254B009308464FF4B471214B07F028FFC0
:104DB0000246204B5A601C4B9968039BDA1C1F4B20
:104DC000009308464FF4B471194B07F019FF0246DF
:104DD000184B9A60144BD968039B1A1D184B00930B
:104DE00008464FF4B471124B07F00AFF0246114B0C
:104DF000DA600D4B1969039B5A1D124B009308464C
:104E00004FF4B4710A4B07F0FBFE0246094B1A61DE
:104E10000D4804F0EDF800F0FBFC01200B4900F018
:104E20008FFC05B05DF804FB20E4000880D8000882
:104E3000114C0008F81B00207CD8000878D8000826
:104E400074D8000870D800086008002084D80008D2
:104E500008B5054804F064F8044806F009F9044868
:104E600006F006F908BD00BF6008002040080020D9
:104E700050080020000000000000000000000000BA
:104E800000B583B001900C4806F00AF90B4806F013
:104E900007F90B484FF0FF3104F02AF9019B1B780A
:104EA000184600F005FC054806F0CAF9024806F06D
:104EB000C7F903B05DF804FB50080020400800204B
:104EC000600800200000000000000000000000005A
:104ED00000B583B00190074806F0E2F8019B1B780B
:104EE000184600F0E5FB034806F0AAF903B05DF8A8
:104EF00004FB00BF5008002000000000000000007C
:104F000000B585B0FFF77CFB03901E4B1968039B2F
:104F10005A1C1D4B009308464FF4B4711B4B07F00D
:104F20006FFE02461A4B1A60164B5968039B9A1C77
:104F3000184B009308464FF4B471174B07F060FE0E
:104F40000246134B5A600F4B9968039BDA1C134BB4
:104F5000009308464FF4B471114B07F051FE02461E
:104F60000B4B9A600F4803F0F3FF0E4803F0F0FF7D
:104F700000F04EFC01200C4900F0E2FB05B05DF8AA
:104F800004FB00BF20E4000870D80008814E000830
:104F9000F81B002078D80008114C000874D80008CD
:104FA000D14E0008600800208CD8000800000000E6
:104FB000014B9B6918467047300D0020000000002F
:104FC00008B5FFF7F5FF03469B68184608BD00BF0C
:104FD00082B00190019B5B6B184602B0704700BF26
:104FE00000B583B001900198412104F069FC01985B
:104FF000422104F065FC0198432104F061FC03B0F8
:105000005DF804FB0000000000000000000000004C
:1050100030B585B0244B1D68FFF7D2FF03465C1CFA
:10502000FFF7C6FF0346009328464FF4B4712246AB
:105030001E4B07F0E5FD02461D4B1A6004F078FC9C
:1050400003900398FFF7C4FF02900398029904F0BD
:1050500097FC029BDBB2184600F02AFB04F068FCC8
:1050600003900398FFF7B4FF02900398029904F0AD
:1050700087FC029BDBB2184600F01AFB04F058FCD8
:1050800003900398FFF7A4FF02900398029904F09D
:1050900077FC029BDBB2184600F00AFB01200549B1
:1050A00000F04EFB05B030BD20E40008E14F0008E1
:1050B000F81B00208CD80008000000000000000051
:1050C00082B020230193019B83F3118802B07047C3
:1050D00082B000230193019B83F3118802B07047D3
:1050E00008B5FFF7EDFF05F0ABF906F059FE08BD76
:1050F00008B506F06DFE05F0ABF9094B1B68084AD0
:1051000093420AD0064B9B699A68054B1B689B68C3
:105110009A4202D2034806F0EBFCFFF7D9FF08BD24
:10512000300D002000E60008000000000000000034
:1051300000B583B0019006F0D3FE019B9B68184632
:1051400003B05DF804FB00BF000000000000000099
:1051500000B583B0019006F0C3FE019B1C331846D6
:10516000FFF7E6FF0346184603B05DF804FB00BFF7
:1051700000B583B0019006F0B3FE019B10331846D2
:10518000FFF7D6FF0346184603B05DF804FB00BFE7
:1051900000B587B00190019B5B6F0493049BDB68B3
:1051A000ADF80E30049B1B68ADF81630BDF8163014
:1051B00003F48073002B0ED002F082F9019B0433BC
:1051C00018464FF4007102F08BF9049B6FF4807263
:1051D0001A6002F07DF902F073F91FE0BDF8163095
:1051E00003F00F03002B05D0BDF8163001981946C7
:1051F00002F0D6F9049B5B688DF80D30BDF81630CF
:1052000003F02003002B05D09DF80D3001981946BE
:1052100002F0EEFC049B1B68ADF81630BDF81630AA
:1052200003F02F03002BD9D102F052F9BDF80E3054
:1052300003F08003002B24D0BDF8163003F0800368
:10524000002B1ED002F03CF9019B3033184603F0CE
:10525000C7F90290029B002B0EDA019B043318461B
:10526000082102F03DF9BDF80E3023F0C00343F0F1
:105270004002049BDA6002E0029A049B5A6002F04A
:1052800027F9BDF8163003F04003002B1BD002F0C5
:1052900017F9019B3033184602F0F2F80346002B51
:1052A00005D0019B04331846102102F019F9BDF80E
:1052B0000E3023F04002049BDA60049B6FF0400242
:1052C0001A6002F005F907B05DF804FB0000000069
:1052D00082B00190034A034BDB6843F08003D36044
:1052E00002B07047004400400000000000000000D1
:1052F00008B505F075F806F0B3FD0448FFF748FF60
:1053000006F0CEFD03F044FD08BD00BF5C14002094
:1053100008B504480021044A02F00AFC014B034A84
:105320005A6708BD5C140020D152000800440040B8
:1053300000B583B001900091009B002B01D10D4B73
:105340000093019B1B7A012B0DD1019B0A4A9342CA
:1053500009D10A4A094B1B6C43F40033136426201D
:105360000C2102F07DFC0198009902F0C9F803B00D
:105370005DF804FB60E300085C1400200038024084
:1053800008B502F0F5FC08BD0000000000000000B8
:10539000704700BF00000000000000000000000097
:1053A00082B020230193019B83F3118802B07047E0
:1053B00082B000230193019B83F3118802B07047F0
:1053C0004FF080435B6A1846704700BF0000000042
:1053D00008B5FFF7F5FF0346184608BD00000000BA
:1053E00008B5FFF7DDFF05F02BF806F0D9FC08BD86
:1053F00008B506F0EDFC05F02BF8094B1B68084AD0
:1054000093420AD0064B9B699A68054B1B689B68C0
:105410009A4202D2034806F06BFBFFF7C9FF08BDB2
:10542000300D002040E400080000000000000000F3
:1054300008B5FFF7CDFF0346184608BD0000000081
:1054400000B583B0FFF7CCFFFFF7F2FF0190FFF745
:10545000CFFF019B184603B05DF804FB000000007D
:1054600084B0039002910192039A029BD21A01998F
:10547000029BCB1A9A4234BF01230023DBB21846A9
:1054800004B07047000000000000000000000000B1
:1054900000B583B001900091FFF7D2FF0346184694
:1054A0000199009AFFF7DCFF0346184603B05DF848
:1054B00004FB00BF0000000000000000000000002E
:1054C00000B583B0019006F00BFD019BDB68002B5B
:1054D00014BF01230023DBB2184603B05DF804FBC0
:1054E00000B583B001900198FFF7EAFF0346002B57
:1054F00002D0019806F04CFE03B05DF804FB00BF3B
:1055000000B585B003900291019200930398FFF7D4
:10551000E7FF03980299019A009B06F0A9FD05B0E8
:105520005DF804FB00000000000000000000000027
:1055300000B585B00390029101920093FFF750FFF0
:1055400003980299019A009BFFF7DAFFFFF750FFDB
:1055500005B05DF804FB00BF000000000000000083
:1055600000B589B00190019B002B09D11E4B1B682F
:105570001B689B681C4A12681046302198472FE030
:1055800003AB079316E007994B1C07930198174B41
:10559000A3FB0023DA0813469B0013445B00C21AE6
:1055A000D3B23033DBB20B70019B104AA2FB032352
:1055B000DB080193019B002BE5D10DE00A4B1B6832
:1055C0001B689B68084A1168079A013A0792079A74
:1055D000127808461146984703AB079A9A42EDD8CD
:1055E00009B05DF804FB00BF0C1C0020CDCCCCCC76
:1055F00000B583B001900BE0094B1B681B689A68EB
:10560000074B1868019B591C01911B78194690475C
:10561000019B1B78002BEFD103B05DF804FB00BFAA
:105620000C1C002000000000000000000000000032
:1056300000B583B001900198FFF7DAFF064B1B68B5
:105640001B681B68044A12681046044902229847E6
:1056500003B05DF804FB00BF0C1C002090D80008CC
:10566000014B024A1A607047EC140020DC14002041
:1056700000B583B00B4B01930BE00B4B1B681B6811
:105680009A68094B1868019B591C01911B781946AF
:105690009047064B1B68019A9A42EED303B05DF81F
:1056A00004FB00BFDC1400200C1C0020EC140020C4
:1056B00000B583B003468DF80730FFF791FE064B27
:1056C0001B685A1C04490A609DF807201A70FFF7EE
:1056D0008FFE03B05DF804FBEC1400200000000016
:1056E00082B00190064B01221A70064B01221A70FB
:1056F000054A019B13600123184602B0704700BFA2
:10570000D4140020D5140020D8140020000000007C
:1057100000B583B001900B468DF803309DF803303F
:1057200083F00103DBB2002B04D00198FFF7D8FF10
:10573000034600E00023184603B05DF804FB00BFF9
:1057400000B585B001900091134B03930EE0039BCD
:105750005A1C03921A78009B591C00911B789A429C
:1057600004D00198FFF7BCFF034610E00B4B1B6809
:10577000039A9A42EBD3009B1B78002B04D001982C
:10578000FFF7AEFF034602E0FFF76AFF002318466B
:1057900005B05DF804FB00BFDC140020EC14002011
:1057A00000B585B003900291019202980199FFF72C
:1057B0006FFE034603981946FFF7AAFF03461846F3
:1057C00005B05DF804FB00BF000000000000000011
:1057D00000B583B0002301930FE00B4A019B52F800
:1057E0002330002B06D0084A019B52F8233018467C
:1057F00007F07EFA019B01330193019B042BECDD42
:1058000003B05DF804FB00BFF81B0020000000009F
:1058100000B583B00023019314E00D4A019B52F8B8
:105820002330002B0BD00A4A019B52F82330184634
:1058300007F0F6FA064A019B002142F82310019B6B
:1058400001330193019B042BE7DD03B05DF804FBFA
:10585000F81B002000000000000000000000000015
:1058600008B5012007F05CFAFFF7EAFD0346184689
:1058700008BD00BF000000000000000000000000A4
:1058800082B00190024B01221A7002B0704700BF33
:10589000101C0020000000000000000000000000BC
:1058A00000B585B00190019B42F2107202FB03F338
:1058B00003F2E733084AA2FB03239B090393074B38
:1058C00000221A7006480399064A0023FFF730FEAB
:1058D00005B05DF804FB00BFD34D6210101C002022
:1058E000141C002081580008000000000000000087
:1058F00000B585B00190FFF7B3FE134B00221A707C
:105900000023039307E0114A039B002142F8231070
:10591000039B01330393039B042BF4DD019B5B6822
:10592000002B02D0019B5B689847019BDB6898477E
:10593000019B9B68002B02D0019B9B689847FFF757
:1059400067FF05B05DF804FBD5140020F81B0020AC
:1059500000B583B0002301930BE00E4B1B681B685E
:105960009B680C4A126810462D219847019B013311
:105970000193019B4B2BF0D9064B1B681B681B68DE
:10598000044A1268104604490222984703B05DF8A1
:1059900004FB00BF0C1C002090D800080000000091
:1059A00000B585B001905F4A019B13605E48FFF728
:1059B0003FFE5E48FFF73CFE5D48FFF739FE5D485D
:1059C000FFF716FE5C48FFF733FE5C48FFF710FE5A
:1059D0005B48FFF72DFE5B48FFF70AFE5A48FFF7CA
:1059E00027FE5A48FFF704FE5948FFF721FE5948A1
:1059F000FFF7FEFD5848FFF71BFE5848FFF7F8FD7C
:105A00005748FFF715FE5748FFF7F2FD5648FFF7D6
:105A10000FFE5648FFF7ECFD5548FFF709FE4248D8
:105A2000FFF706FE534B00221A70002303935DE03C
:105A3000002302934DE0FFF78BFF4F48FFF7D8FD9F
:105A4000039B01331846FFF78BFD4C48FFF7D0FD51
:105A5000029B01331846FFF783FD4948FFF7C8FD55
:105A6000484A039B52F82320029B9B0013441B6867
:105A70001B681846FFF7BCFD4348FFF7D9FD4FF4FC
:105A8000FA6007F04DF93F4A039B52F82320029B2E
:105A90009B0013441B681846FFF72AFF3B4B1B78FB
:105AA000002B10D03A48FFF7A3FD3A4B1B6818466D
:105AB000FFF756FD3848FFF79BFDFFF7D9FD374844
:105AC000FFF7B6FD02E03648FFF7B2FD029B013357
:105AD00002932C4A039B52F82320029B9B00134401
