:020000040800F2
:1000000000040020C1010008E1B70008E1B70008C2
:10001000E1B70008E1B70008E1B70008E1B7000860
:10002000E1B70008E1B70008E1B70008C18E000899
:10003000E1B70008E1B70008E1B70008E1B7000840
:10004000E1B70008E1B70008E1B70008E1B7000830
:10005000E1B70008E1B70008E1B70008E1B7000820
:10006000E1B70008E1B70008E1B70008C17F000868
:100070001180000861800008B1800008018100083B
:1000800051810008A1810008E1B70008E1B700082C
:10009000E1B70008E1B70008E1B70008E1B70008E0
:1000A000E1B70008E1B70008E1B70008E1B70008D0
:1000B00011650008E1B70008E1B7000841700008C9
:1000C00061700008B1700008D1700008E1B7000845
:1000D000E1B70008F153000811540008E1B7000827
:1000E000E1B70008E1B70008E1B70008E1B7000890
:1000F000E1B70008E1B70008E1B70008F1810008A6
:10010000E1B70008E1B70008E1B70008E1B700086F
:10011000E1B70008E1B70008E1B70008E1B700085F
:100120004182000891820008E182000831830008C2
:1001300081830008E1B70008E1B70008E1B70008D3
:10014000E1B70008E1B70008E1B70008E1B700082F
:10015000D18300082184000871840008E1B70008F9
:100160002171000841710008E1B70008E1B70008FB
:10017000E1B70008E1B70008E1B70008E1B70008FF
:10018000E1B70008E1B70008E1B70008E1B70008EF
:10019000E1B70008E1B70008E1B70008E1B70008DF
:1001A000E1B70008E1B70008E1B70008E1B70008CF
:1001B000E1B70008E1B70008E1B70008E1B70008BF
:1001C00072B6224880F30988022080F31488BFF3B6
:1001D0006F8F0BF0B5FA05F083F91D481D491E4AD3
:1001E00091423CBF41F8040BFAE71C49174A91427F
:1001F0003CBF41F8040BFAE719491A4A1A4B9A42D4
:100200003EBF51F8040B42F8040BF8E700201749F1
:10021000174A91423CBF41F8040BFAE70BF0A8FAE9
:100220000BF096FA134C144DAC4203DA54F8041B4D
:100230008847F9E700F05CFE104C114DAC4203DA40
:1002400054F8041B8847F9E70BF08ABA000800202D
:1002500055555555000000200004002000040020E2
:1002600068EB0008000800202C0D0020300D002055
:1002700050260020C0010008C0010008C00100088D
:10028000C0010008000000000000000000000000A5
:100290002DE9F04FC1F80CD0C3689D46BDE8F08F42
:1002A0000BF046FE0AF084F9002383F311882846F8
:1002B000A04700200CF014FE0AF072F90BF020FEAB
:1002C0000CF04EFB0BF034FE0AF072F900DFFEE793
:1002D00008B52E4805F03CFA4FF4BB6005F0F0F984
:1002E0002B4805F055FA2B4805F032FA602005F04E
:1002F000E7F9274805F04CFA274805F029FA1420B9
:1003000005F0DEF9224805F043FA244805F020FA0A
:100310000C2005F0D5F91E4805F03AFA204805F002
:1003200017FA042005F0CCF9194805F031FA1D48F8
:1003300005F00EFA142005F0C3F9154805F028FA67
:10034000194805F005FA102005F0BAF9104805F033
:100350001FFA164805F0FCF9082005F0B1F90C4821
:1003600005F016FA124805F0F3F9242005F0A8F973
:10037000074805F00DFA0F4805F0EAF9282005F0C6
:100380009FF9034805F004FA08BD00BF30D8000803
:1003900040D8000848D8000858D8000868D8000895
:1003A00078D8000888D8000898D80008A8D800088D
:1003B000B8D80008C8D800080000000000000000FD
:1003C00088B00390029101920093029B0593009BD9
:1003D000002B02D1029B049301E0009B0493039B3A
:1003E0000B330693059B019AB3FBF2F2019901FBD3
:1003F00002F29B1A0793079B30330793079B392B15
:1004000002DD079B07330793069B013B0693079B7F
:10041000DAB2069B1A70059A019BB2FBF3F30593BF
:10042000049A019BB2FBF3F30493049B002BD9D1F4
:10043000039B0B331A46069BD31A0793039B5A1C44
:100440000392069A511C069112781A70079B013B81
:100450000793079B002BF1D1039B184608B0704708
:1004600000B585B003900291019203980299019A18
:100470000023FFF7A5FF0346184605B05DF804FB0F
:1004800000B591B003900291019200230993029B61
:100490005A1C02921B788DF837309DF83730002BAC
:1004A00001D1099B0BE29DF83730252B0BD0039B24
:1004B0001B689B689DF83720039811469847099B55
:1004C00001330993E3E704AB0F9304AB0E930023CE
:1004D0008DF82230029B1B782D2B05D1029B013316
:1004E000029301238DF8223020238DF83630029BB1
:1004F0001B78302B05D1029B0133029330238DF8FA
:10050000363000230A93029B5A1C02921B788DF806
:1005100037309DF837302F2B09D99DF83730392BDC
:1005200005D89DF83730303B8DF8373009E09DF81D
:1005300037302A2B10D1019B1A1D01921B688DF8B0
:1005400037300A9A13469B0013445B001A469DF805
:10055000373013440A93D6E700230B939DF83730C6
:100560002E2B29D1029B5A1C02921B788DF8373012
:100570009DF837302F2B09D99DF83730392B05D806
:100580009DF83730303B8DF8373009E09DF8373033
:100590002A2B11D1019B1A1D01921B688DF837304F
:1005A0000B9A13469B0013445B000B939DF8373066
:1005B0000B9A13440B93D5E79DF837306C2B03D07F
:1005C0009DF837304C2B0DD101238DF82330029B41
:1005D0001B78002B1AD0029B5A1C02921B788DF8B4
:1005E000373014E09DF83730402B05D99DF837306F
:1005F0005A2B01D8012300E000238DF823309DF809
:10060000233003F001038DF8233000E000BF9DF894
:100610003730443B342B00F2E28001A252F823F041
:1006200057070008DF070008DF070008DF0700089A
:10063000DF07000857070008DF070008DF0700088A
:10064000DF070008DF070008DF070008A907000828
:10065000DF070008DF070008DF070008DF070008E2
:10066000DF070008A1070008DF070008DF07000810
:1006700099070008DF070008DF070008DF07000808
:10068000DF070008DF070008DF070008DF070008B2
:10069000DF070008DF070008DF070008F50600088D
:1006A00057070008DF070008DF070008DF0700081A
:1006B000DF07000857070008DF070008DF0700080A
:1006C000DF070008DF070008DF070008A9070008A8
:1006D000DF070008DF070008DF0700080F07000832
:1006E000DF070008A1070008DF070008DF07000890
:1006F0009907000820238DF836300F9B5A1C0F9263
:10070000019A111D01911268D2B21A706DE0202376
:100710008DF83630019B1A1D01921B680E930E9BBB
:10072000002B01D1684B0E930B9B002B02D147F697
:10073000FF730B930E9B0F9302E00F9B01330F93FC
:100740000F9B1B78002B50D00B9B013B0B930B9BFB
:10075000002BF2DA49E09DF82330002B05D0019BF5
:100760001A1D01921B68079304E0019B1A1D019258
:100770001B680793079B002B07DA0F9B5A1C0F92ED
:100780002D221A70079B5B4207930F9807990A2244
:10079000FFF766FE0F9028E010238DF8373006E053
:1007A0000A238DF8373002E008238DF837309DF8A2
:1007B0002330002B05D0019B1A1D01921B68079363
:1007C00004E0019B1A1D01921B6807939DF83730C6
:1007D0000F9807991A46FFF743FE0F9005E00F9B0D
:1007E0005A1C0F929DF837201A700F9A0E9BD31A3D
:1007F0000C930A9A0C9BD31A0A930A9B002B01DADA
:1008000000230A939DF8223083F00103DBB2002B12
:1008100002D00A9B5B420A930A9B002B36DA0E9B9E
:100820001B782D2B13D19DF83630302B0FD1039B25
:100830001B689A680E9B591C0E911B7803981946E9
:100840009047099B013309930C9B013B0C93039B3D
:100850001B689B689DF83620039811469847099BB2
:10086000013309930A9B01330A930A9B002BEED1B3
:100870000CE0039B1B689A680E9B591C0E911B7819
:10088000039819469047099B013309930C9B013B40
:100890000C930C9B002BECDA0DE0039B1B689B6810
:1008A0009DF83620039811469847099B0133099318
:1008B0000A9B013B0A930A9B002BEED1E7E5184601
:1008C00011B05DF804FB00BFF4D800080000000080
:1008D0000EB400B584B0019006AB0293019805995F
:1008E000029AFFF7CDFD0390039B184604B05DF814
:1008F00004EB03B0704700BF0000000000000000E0
:1009000000B583B0019001984FF0FF3109F0D0FCA1
:100910000346184603B05DF804FB00BF000000006A
:1009200010B586B005900B468DF813309DF8133046
:10093000452B03D99DF81330F92B2BD9059B282281
:100940005A65059B1B7B002B04D0059B5B681846F2
:1009500007F036F8059B5868059B1B7899B2059BF4
:1009600003F10D02059B5B6D0DF113040092012252
:10097000019202932246012306F0CAFF0246059B1C
:100980001A65059B1B7B002B04D0059B5B681846F2
:1009900007F02EF8059B5B7B184606B010BD00BF24
:1009A00010B586B005900B468DF8133013468DF8C0
:1009B0001230059B9DF8132083F82D20059B9DF890
:1009C000122083F82E20059B28225A65059B1B7B4D
:1009D000002B04D0059B5B68184606F0F1FF059BD1
:1009E0005868059B1B7899B2059B03F12D04059B64
:1009F00003F10D02059B5B6D0092002201920293B0
:100A00002246022306F084FF0246059B1A65059BD9
:100A10001B7B002B04D0059B5B68184606F0E8FFA3
:100A200006B010BD00000000000000000000000043
:100A300000B583B00190019800210022FFF7B0FFBC
:100A40000A200CF01DFA03B05DF804FB0000000062
:100A500000B585B001900091009B1B031F4AB2FBBB
:100A6000F3F3DBB2013B8DF80F309DF80F30022B12
:100A700002D803238DF80F3001980021FFF750FFB3
:100A800003468DF80E3010238DF80D309DF80D3093
:100A9000019800211A46FFF783FF9DF80F30019857
:100AA000FE211A46FFF77CFF9DF80E3001980021C9
:100AB0001A46FFF775FF05200CF0E2F99DF80E309D
:100AC00063F05E03DBB2019800211A46FFF768FF6E
:100AD000019B009A9A6505B05DF804FB40787D01A2
:100AE00010B588B00790084611461A4603468DF89F
:100AF0001B300B46ADF818301346ADF81630079B87
:100B00009DF81B2083F85C209DF81B309B00DBB216
:100B10000633DAB2079B83F82D20BDF81830DAB21D
:100B2000079B83F82E20BDF818301B0A9BB2DAB25F
:100B3000079B83F82F20BDF81630DAB2079B83F8A5
:100B40003020BDF816301B0A9BB2DAB2079B83F83F
:100B50003120079B28225A65079B1B7B002B04D062
:100B6000079B5B68184606F02BFF079B5868079B9E
:100B70001B7899B2079B03F12D04079B03F10D022B
:100B8000079B5B6D0092002201920293224605238F
:100B900006F0BEFE0246079B1A65079B1B7B002BD7
:100BA00004D0079B5B68184606F022FF08B010BD12
:100BB00082B00190019BB3F1FF3F01D1019B1CE08A
:100BC000019B13F1020F01D1002316E0019B002BC2
:100BD00001DA00230193019BA02B01DDA0230193E7
:100BE000019B4FF48C7202FB03F3054A82FB031254
:100BF0001A449211DB17D31A9633184602B0704785
:100C0000B7600BB60000000000000000000000000C
:100C100010B5ADF58B6D05AB18600023CDF85434DD
:100C20000023CDF850340023CDF8343455E0AA48E1
:100C3000FFF766FE03468DF83B3406AADDF8543410
:100C400013449DF83B241A70DDF854340133CDF879
:100C500054349DF83B342C2B3FD106AADDF8543494
:100C6000134400221A70DDF85034002B05D106AB76
:100C700018460CF0DDFACDF84C04DDF85034012BA9
:100C800005D106AB18460CF0D3FACDF84804DDF8D0
:100C90005034022B05D106AB18460CF0C9FACDF83A
:100CA0004404DDF85034032B05D106AB18460CF094
:100CB000BFFACDF84004DDF85034042B05D106AB63
:100CC00018460CF0B5FACDF83C040023CDF85434A6
:100CD000DDF850340133CDF850349DF83B34262BE9
:100CE000A5D106AADDF85434134400221A7006ABCD
:100CF00018460CF09DFACDF83004DDF84C04FFF7EF
:100D000057FFCDF82C04DDF84804FFF751FFCDF86C
:100D10002804DDF84404FFF74BFFCDF82404DDF888
:100D20004004FFF745FFCDF82004DDF83C04FFF751
:100D30003FFFCDF81C04DDF83004FFF739FFCDF894
:100D400018044FF47A700CF09BF8DDF84C3413F172
:100D5000020F30DBDDF84C34A02B2CDCDDF84834FE
:100D600013F1020F27DBDDF84834A02B23DCDDF87C
:100D7000443413F1020F1EDBDDF84434A02B1ADCDF
:100D8000DDF8403413F1020F15DBDDF84034A02B01
:100D900011DCDDF83C3413F1020F0CDBDDF83C34E0
:100DA000A02B08DCDDF8303413F1020F03DBDDF893
:100DB0003034A02B14DDDDF824340093DDF820342A
:100DC0000193DDF81C340293DDF818340393434893
:100DD0004349DDF82C24DDF82834FFF779FD13E0D2
:100DE000DDF824340093DDF820340193DDF81C3461
:100DF0000293DDF81834039338483A49DDF82C247F
:100E0000DDF82834FFF764FDDDF82C34B3F1FF3F43
:100E100009D0DDF82C349CB205AB18680021002203
:100E20002346FFF75DFEDDF82834B3F1FF3F09D01C
:100E3000DDF828349CB205AB186801210022234656
:100E4000FFF74EFEDDF82434B3F1FF3F09D0DDF8A3
:100E500024349CB205AB1868022100222346FFF718
:100E60003FFEDDF82034B3F1FF3F09D0DDF8203438
:100E70009CB205AB1868032100222346FFF730FE21
:100E8000DDF81C34B3F1FF3F09D0DDF81C349CB20F
:100E900005AB1868042100222346FFF721FEDDF888
:100EA0001834B3F1FF3F09D0DDF818349CB205AB1C
:100EB0001868052100222346FFF712FE4FF47A70CE
:100EC0000BF0DEFF0023CDF854340023CDF850346E
:100ED00000238DF83B3400E7681400205C140020E8
:100EE000FCD8000830D90008000000000000000015
:100EF00000B59BB008F03CF80AF05AFE2B482C498C
:100F000006F0FEFE2B484FF4807140F2062205F0F9
:100F1000C7FB28484FF4007140F2062205F0C0FBE1
:100F200025484FF4007140F2823205F0B9FB2248A7
:100F30004FF4806140F2823205F0B2FB1F481C4939
:100F400006F0DEFE40238DF808301D4B03933C2352
:100F500018931C4B049301238DF81430039A049BBF
:100F60001046194606F0A4FC02AB1846FFF760FDD8
:100F7000189B02AA10461946FFF76AFD02AB0093C0
:100F8000114840F6E8014022104B0BF0E9FE104BEF
:100F90001B695B0B03F00103002B02D1034804F033
:100FA000AFFD41F288300BF06BFFF0E7D414002066
:100FB000EC08002000040240000002405C14002005
:100FC000B413002040EA0008681D0020110C00083E
:100FD00000080240000000000000000000000000C7
:100FE00000B583B0064B1A680023009305481146EC
:100FF0000422054B09F004FA03B05DF804FB00BFBE
:10100000C0E50008C8080020712E0008000000009C
:1010100000B583B00190044800214FF4FA6207F054
:1010200047FB03B05DF804FBC80800200000000087
:1010300010B586B001F034FE9E4801F0D1FE0346A3
:101040000120194604F014FC0346002B02D001F0E5
:101050002FFE2DE101F02CFE002305930AE0059BF5
:10106000DBB24133DBB29348194601F0E9FE059B40
:1010700001330593059B032BF1D901F011FE8D4837
:1010800001F0CEFE03460220194604F0F1FB0346B0
:10109000002B02D001F00CFE0AE101F009FE002352
:1010A000059311E001F0FCFD824807F049FB03467F
:1010B0008DF8133001F0FCFD9DF81330184604F054
:1010C000A7FB059B01330593059B032BEAD901F090
:1010D000E7FD784801F084FE03460320194604F03A
:1010E000C7FB0346002B02D001F0E2FDE0E001F077
:1010F000DFFD0420704904F0D3FB0346002B40F0D1
:10110000D78001F0CDFD6B4807F01AFB034613F1C1
:10111000030F0CBF01230023DBB20520194604F0A6
:10112000A7FB0346002B02D001F0C2FDC0E001F096
:10113000BFFD624B5B685F4819460822002307F039
:101140002FFB0390039B042B0CBF01230023DBB276
:101150000620194604F08CFB0346002B40F0A880C3
:1011600001F09EFD534801F05BFE0346072019463F
:1011700004F07EFB0346002B02D001F099FD97E0BE
:1011800001F096FD4D4B1C6801F0BAFD03465A1C58
:101190000023009320464FF4B471494B0BF0E0FD5F
:1011A0000246484B1A6001F07BFD424801F000FE08
:1011B0000346042B0CBF01230023DBB20820194691
:1011C00004F056FB0346002B02D001F071FD6FE0E6
:1011D00001F06EFD04F0CCFB01F062FD354807F034
:1011E00047FA01F065FD01F05BFD324801F0E0FDDA
:1011F0000346002B0CBF01230023DBB20920194654
:1012000004F036FB0346002B02D001F051FD4FE005
:1012100001F04EFD294B5B68264819460222002347
:1012200007F0BEFA0390039B022B0CBF012300239F
:10123000DBB20A20194604F01BFB0346002B37D112
:101240001E4B5B681B4819460222002307F0A8FAD0
:101250000390039B022B0CBF01230023DBB20B2066
:10126000194604F005FB0346002B21D101F018FDBF
:10127000104801F0D5FD03460C20194604F0F8FA99
:101280000346002B02D001F013FD11E001F010FD28
:10129000084800210A2207F00BFA0346B3F1FF3F8A
:1012A0000CBF01230023DBB20D20194604F0E0FA45
:1012B00006B010BDC808002050D90008C0E50008DD
:1012C00011100008701C0020000000000000000049
:1012D00082B0EFF311830093009B0193019B1846AA
:1012E00002B0704700000000000000000000000095
:1012F00082B00190019B002B0CBF01230023DBB2C5
:10130000184602B0704700BF000000000000000057
:1013100082B020230193019B83F3118802B07047B0
:1013200082B000230193019B83F3118802B07047C0
:1013300008B5FFF7EDFF08BD000000000000000049
:1013400008B5FFF7EDFF08BD000000000000000039
:1013500072B67047000000000000000000000000AE
:1013600082B020230193019B83F3118862B602B0FF
:10137000704700BF000000000000000000000000F7
:1013800082B000230193019B83F3118862B602B0FF
:10139000704700BF000000000000000000000000D7
:1013A00008B5FFF7D5FF0AF063FD08BD0000000097
:1013B00008B5FFF7D5FF0AF073FD08BD0000000077
:1013C00008B50AF085FDFFF7DBFF08BD000000004F
:1013D00008B5FFF79DFF09F0E3F80AF091FD08BD9D
:1013E00008B50AF0A5FD09F0E3F8094B1B68084AA7
:1013F00093420AD0064B9B699A68054B1B689B6811
:101400009A4202D203480AF023FCFFF789FF08BD85
:10141000300D002010E9000800000000000000006E
:1014200008B5FFF785FF09F0CBF80AF099FD08BD74
:1014300008B50AF0ADFD09F0CBF8FFF781FF08BD54
:1014400008B5FFF745FF03461846FFF751FF03466F
:10145000002B01D0FFF7BCFF08BD00BF000000005B
:1014600008B5FFF735FF03461846FFF741FF03466F
:1014700083F00103DBB2002B01D0FFF7B1FF08BD01
:1014800082B00190019B0022DA6002B0704700BF79
:1014900000B583B001900AF0D3FD019BDB68002BFF
:1014A00014BF01230023DBB2184603B05DF804FB30
:1014B00000B585B00190FFF78BFF0198FFF7E8FFBB
:1014C00003468DF80F30FFF78BFF9DF80F3018465D
:1014D00005B05DF804FB00BF000000000000000044
:1014E00000B583B001900198FFF7D2FF0346002BAF
:1014F00002D001980AF0FCFE03B05DF804FB00BFC7
:1015000000B585B003900291019200930398FFF714
:10151000E7FF03980299019A009B0AF059FE05B073
:101520005DF804FB00000000000000000000000067
:1015300000B585B00390029101920093FFF748FF38
:1015400003980299019A009BFFF7DAFFFFF748FF23
:1015500005B05DF804FB00BF0000000000000000C3
:1015600000B585B00190FFF75BFFFFF761FFFFF764
:1015700057FF0AF00DFC039003980AF029FCFFF7CF
:1015800057FF05B05DF804FB0000000000000000FC
:1015900000B587B00AF0FCFB059005980AF018FC2E
:1015A000FFF716FF0AF0F4FB059005980AF010FC0F
:1015B000FFF716FFFFF744FFFFF742FFFFF710FFAB
:1015C000FFF706FFFFF74CFFFFF74AFF6B46184691
:1015D000FFF756FF6B4618460121104A0023FFF71C
:1015E000A7FF0A200BF04CFC6B461846FFF760FF84
:1015F0000346002B14BF01230023DBB283F0010359
:10160000DBB203F00103DBB20120194604F030F92C
:101610000346002B07B05DF804FB00BF611500080E
:1016200008B5FFF7C5FEFFF7BBFEFFF7C1FEFFF7EA
:10163000C7FE08BD00000000000000000000000020
:1016400000B583B0FFF7C4FE01200AF011FB03468A
:101650008DF80730FFF7C4FE9DF80730002B14BF4C
:1016600001230023DBB283F00103DBB203F00103AB
:10167000DBB20120194604F0FBF80346002B56D1DB
:10168000FFF7A6FE02200AF0F3FA03468DF80730B2
:10169000FFF7A6FE9DF80730002B14BF012300239F
:1016A000DBB283F00103DBB203F00103DBB2022003
:1016B000194604F0DDF80346002B38D1FFF788FE09
:1016C00004200AF0D5FA03468DF80730FFF788FEAC
:1016D0009DF80730002B14BF01230023DBB283F0F9
:1016E0000103DBB203F00103DBB20320194604F06F
:1016F000BFF80346002B1AD1FFF76AFE08200AF054
:10170000B7FA03468DF80730FFF76AFE9DF80730F9
:10171000002B14BF01230023DBB283F00103DBB2F3
:1017200003F00103DBB20420194604F0A1F803B072
:101730005DF804FB00000000000000000000000055
:1017400082B020230193019B83F3118802B070477C
:1017500082B000230193019B83F3118802B070478C
:1017600008B5FFF7EDFF08F01BFF0AF0C9FB08BD45
:1017700008B50AF0DDFB08F01BFF094B1B68084A9F
:1017800093420AD0064B9B699A68054B1B689B687D
:101790009A4202D203480AF05BFAFFF7D9FF08BD6C
:1017A000300D002030EA00080000000000000000BA
:1017B000014B9B6918467047300D00200000000067
:1017C00008B5FFF7F5FF03469B68184608BD00BF44
:1017D00008B5FFF7EDFF034693F8213003F004034B
:1017E000002B14BF01230023DBB2184608BD00BF45
:1017F00082B00190019B5B6B184602B0704700BF3E
:1018000000B583B0019001984FF0FF3108F050FD12
:101810000346184603B05DF804FB00BF000000005B
:1018200000B583B00190019B18460BF059FB03B043
:101830005DF804FB00000000000000000000000054
:1018400000B585B0019008F023F903900398FFF7E5
:10185000CFFF02900398029908F042F9029B002BF7
:10186000F1D105B05DF804FB0000000000000000AD
:1018700000B585B001900023039304F0A1F84FF464
:101880007A7004F0BDF80198012108F0C9F8039BB3
:1018900001330393074B1B7883F00103DBB2002B6A
:1018A000F1D10198002108F0BBF8039B184605B060
:1018B0005DF804FB881C0020000000000000000010
:1018C00010B584B0154B1C68FFF77AFF03465A1E0B
:1018D0000023009320464FF4B471114B0BF040FAF3
:1018E0000246104B1A600F4B1B681846FFF7C0FFEB
:1018F000039004F03DF80C4803F02AFF039803F02E
:10190000DFFE0A4803F024FF039B5B00184603F048
:10191000D7FE074803F03CFF04B010BDC0E5000847
:1019200041180008701C002058D9000868D9000828
:1019300074D9000800000000000000000000000052
:1019400010B584B0154B1C68FFF73AFF03465A1CCC
:101950000023009320464FF4B471114B0BF000FAB2
:101960000246104B1A600F4B1B681846FFF780FFAA
:10197000039003F0FDFF0C4803F0EAFE039803F028
:101980009FFE0A4803F0E4FE039B5B00184603F049
:1019900097FE074803F0FCFE04B010BDC0E5000848
:1019A00041180008701C002058D9000868D90008A8
:1019B00074D90008000000000000000000000000D2
:1019C00010B584B0374B1C68FFF7FAFE03465A1C6B
:1019D0000023009320464FF4B471334B0BF0C0F951
:1019E0000246324B1A602F4B5C68FFF7E9FE034654
:1019F0009A1E0023009320464FF4B4712C4B0BF039
:101A0000AFF90246294B5A60264B9C68FFF7D8FE77
:101A10000346DA1E0023009320464FF4B471244B92
:101A20000BF09EF90246214B9A601E4BDC68FFF7D3
:101A3000C7FE03461A1F0023009320464FF4B471DB
:101A40001B4B0BF08DF90246184BDA60154B1C69E5
:101A5000FFF7B6FE03465A1F0023009320464FF4BB
:101A6000B471134B0BF07CF90246104B1A610F4B0B
:101A70001B681846FFF7FCFE039003F079FF0D4842
:101A800003F066FE039803F01BFE0B4803F060FEB4
:101A9000039B5B00184603F013FE084803F078FE32
:101AA00004B010BDC0E5000841180008701C0020FB
:101AB0002118000858D9000868D9000874D900080E
:101AC00000B585B00190FFF773FE0390FFF748FE65
:101AD00003200AF07DFD039B5B6A0293029B002BAF
:101AE000F6D0FFF745FE05B05DF804FB00000000EE
:101AF00010B584B0284B1C68FFF762FE03465A1CE1
:101B00000023009320464FF4B471244B0BF028F9C6
:101B10000246234B1A60224B1B6802930023039357
:101B200003F04EFF4FF47A7003F06AFFFFF718FEE0
:101B3000029800210AF004FE029800210AF000FE3B
:101B4000029800210AF0FCFD029800210AF0F8FD3D
:101B5000FFF70EFE039B04330393124B1B7883F0B5
:101B60000103DBB2002BE1D1FFF7FAFD02984FF041
:101B7000FF310AF0E5FDFFF7FBFD03F0F9FE0A482F
:101B800003F0E6FD039B5B00184603F099FD074850
:101B900003F0FEFD04B010BDC0E50008C11A000846
:101BA000701C0020881C002058D9000874D9000837
:101BB00000B587B000230593184B1B680493FFF70B
:101BC000FFFD0346013B039303F0FAFE4FF47A70E6
:101BD00003F016FF0023009304984FF4B471039AA6
:101BE0000F4B0BF0BDF8034618460BF0C9F9059BE7
:101BF000013305930B4B1B7883F00103DBB2002B01
:101C0000E8D1094803F0A4FD059803F059FD074801
:101C100003F0BEFD07B05DF804FB00BFC0E500089F
:101C200021180008881C002058D9000880D9000815
:101C300000B587B000230593164B1B680493FFF78C
:101C4000BFFD03460133039303F0BAFE4FF47A70ED
:101C500003F0D6FE0023009304984FF4B471039A66
:101C60000D4B0BF07DF8059B013305930B4B1B7857
:101C700083F00103DBB2002BECD1094803F068FDCF
:101C8000059803F01DFD074803F082FD07B05DF8DD
:101C900004FB00BFC0E5000821180008881C0020D4
:101CA00058D9000880D9000800000000000000009A
:101CB00000B583B0019002E0064808F089FFFFF705
:101CC00087FD034683F00103DBB2002BF4D103B0A0
:101CD0005DF804FBEC1C0020000000000000000088
:101CE00008B50248002108F0EBFE08BDEC1C0020FE
:101CF00010B584B0444B1C68FFF762FD03465A1DC3
:101D00000023009320464FF4B471404B0BF028F8A9
:101D100002463F4B1A603C4B5C68FFF751FD03469F
:101D20001A1D0023009320464FF4B471374B0BF07B
:101D300017F80246364B5A60334B9C68FFF740FD5C
:101D40000346DA1C0023009320464FF4B4712F4B56
:101D50000BF006F802462E4B9A602B4BDC68FFF71F
:101D60002FFD03469A1C0023009320464FF4B471C4
:101D7000264B0AF0F5FF0246254BDA60224B1C6920
:101D8000FFF71EFD03465A1C0023009320464FF424
:101D9000B4711E4B0AF0E4FF02461D4B1A6100238A
:101DA000039303F00DFE4FF47A7003F029FE1948F7
:101DB000002108F0A5FE039B01330393164B1B780B
:101DC00083F00103DBB2002BF1D103F0B1FD114828
:101DD000002108F095FE03F0CBFD104803F0B8FC9D
:101DE000039803F06DFC0E4803F0B2FC039A13460F
:101DF0005B0013445B00184603F062FC094803F0E3
:101E0000C7FC04B010BD00BFC0E50008B11C00084D
:101E1000701C0020EC1C0020881C002058D90008F1
:101E20008CD9000874D900080000000000000000F0
:101E300000B583B001900BF04BF80BF049F80BF0B4
:101E400047F80BF045F8019B1B681A1D019B1A60AF
:101E5000FFF7BEFC034683F00103DBB2002BEAD19F
:101E600003B05DF804FB00BF0000000000000000AC
:101E700010B584B00023039303F0A2FD344B1C681B
:101E8000FFF79EFC03465A1E03AB009320464FF417
:101E9000B471304B0AF064FF02462F4B1A602C4B92
:101EA0005C68FFF78DFC03465A1E03AB0093204687
:101EB0004FF4B471274B0AF053FF0246264B5A6089
:101EC000234B9C68FFF77CFC03465A1E03AB009330
:101ED00020464FF4B4711F4B0AF042FF02461E4BDE
:101EE0009A601B4BDC68FFF76BFC03465A1E03AB82
:101EF000009320464FF4B471164B0AF031FF0246AE
:101F0000154BDA60124B1C69FFF75AFC03465A1E48
:101F100003AB009320464FF4B4710E4B0AF020FF40
:101F200002460D4B1A6142F210700AF0A9FF03F04D
:101F3000FFFC03F01DFD094803F00AFC039B184653
:101F400003F0BEFB064803F023FC04B010BD00BF45
:101F5000C0E50008311E0008701C002058D9000898
:101F600074D900080000000000000000000000001C
:101F700000B585B000230093224823491022002396
:101F800008F016F90023039303F01AFD4FF47A705A
:101F900003F036FDFFF7E4FB1A48002108F050F982
:101FA0001848012108F04CF91648022108F048F9B8
:101FB0001448032108F044F9FFF7DAFB1148FFF752
:101FC0001FFC1048FFF71CFC0E48FFF719FC0D48DA
:101FD000FFF716FC039B013303930C4B1B7883F034
:101FE0000103DBB2002BD5D1094803F0B1FB039B01
:101FF0009B00184603F064FB064803F0C9FB05B0DC
:102000005DF804FB081D00202C1D0020881C00200A
:1020100058D90008A0D90008000000000000000006
:1020200082B0019002B07047000000000000000084
:1020300000B583B00023019303F0C2FC4FF47A7023
:1020400003F0DEFCFFF78CFB16480121164A002343
:102050000AF0BEF8154842F21071134A00230AF044
:10206000B7F810480AF044F910480AF041F9FFF7B0
:102070007FFB019B013301930D4B1B7883F0010320
:10208000DBB2002BDED10B4803F062FB019B5B004F
:10209000184603F015FB084803F07AFB03B05DF81F
:1020A00004FB00BF3C1D002021200008501D002023
:1020B000881C002058D90008ACD900080000000096
:1020C00008B50248012108F0FBFC08BDEC1C00200B
:1020D00000B583B00023019303F072FC4FF47A70D3
:1020E00003F08EFC174808F073FD164808F048FE10
:1020F000144808F06DFD134808F042FE114808F03E
:1021000067FD104808F03CFE0E4808F061FD0D48E0
:1021100008F036FE019B013301930B4B1B7883F0D3
:102120000103DBB2002BDDD1084803F011FB019B5A
:102130009B00184603F0C4FA054803F029FB03B0DE
:102140005DF804FBEC1C0020881C002058D9000816
:10215000B8D90008000000000000000000000000E6
:1021600008B5024809F034F808BD00BFF81C00208B
:1021700000B583B00023019303F022FC4FF47A7082
:1021800003F03EFC174809F03BF8164809F008F93F
:10219000144809F035F8134809F002F9114809F01C
:1021A0002FF8104809F0FCF80E4809F029F80D48FE
:1021B00009F0F6F8019B013301930B4B1B7883F078
:1021C0000103DBB2002BDDD1084803F0C1FA019B0B
:1021D0009B00184603F074FA054803F0D9FA03B0DF
:1021E0005DF804FBF81C0020881C002058D900086A
:1021F000C8D9000800000000000000000000000036
:1022000008B54FF0FF3007F013F908BD00000000DB
:1022100000B583B04FF0FF30002107F0B9FA01900C
:10222000019B002B0CBF01230023DBB201201946C8
:1022300003F01EFB0346002B5BD14FF0FF30002163
:1022400007F0E6FA0190019B002B0CBF012300234D
:10225000DBB20220194603F00BFB0346002B48D1EA
:102260004FF0FF30002107F013FB0190019B002B82
:102270000CBF01230023DBB20320194603F0F8FA58
:102280000346002B35D14FF0FF300A2107F080FACA
:102290000190019B002B0CBF01230023DBB2042023
:1022A000194603F0E5FA0346002B22D14FF0FF3028
:1022B0000A2107F0ADFA0190019B002B0CBF01230E
:1022C0000023DBB20520194603F0D2FA0346002BA7
:1022D0000FD14FF0FF300A2107F0DAFA0190019B8D
:1022E000002B0CBF01230023DBB20620194603F0AC
:1022F000BFFA03B05DF804FB00000000000000001E
:1023000008B5034803494FF4E16206F059FB08BDE4
:10231000A01C002068150020000000000000000044
:1023200000B587B006F024FB01AB0020194606F08B
:102330006FFC0020102106F073FB0590059B002B1D
:1023400014BF01230023DBB20120194603F090FAE9
:102350000346002B40F04881059806F0D9FB002089
:102360006FF0FF0106F05CFB0590059B002B0CBF96
:1023700001230023DBB20220194603F079FA034659
:10238000002B40F0318101AB9948194606F040FC22
:102390009748102106F044FB05909548102106F05F
:1023A0003FFB04909248102106F03AFB03900598F9
:1023B00006F0AEFB049806F0ABFB039806F0A8FB12
:1023C00002AB8B48194606F023FC0346012B0CBFD9
:1023D00001230023DBB20320194603F049FA034628
:1023E000002B40F001818248102106F019FB059076
:1023F0007F48102106F014FB04907D48102106F060
:102400000FFB0390039806F083FB049806F080FB13
:10241000059806F07DFB02AB7548194606F0F8FBFF
:102420000346012B0CBF01230023DBB20420194615
:1024300003F01EFA0346002B40F0D6806C481121B1
:1024400006F0EEFA05906A48102106F0E9FA0490C9
:10245000059806F05DFB02AB6548194606F0D8FB0F
:102460000346022B0CBF01230023DBB205201946D3
:1024700003F0FEF90346002B40F0B6805C481021C3
:1024800006F0CEFA059002AB5948194606F0C0FB9B
:102490000346012B07D002AB5548194606F0B8FB9E
:1024A0000346022B01D1012300E0002303F00103C6
:1024B000DBB20620194603F0DBF90346002B40F09F
:1024C0009380049806F024FB059806F021FB02ABEC
:1024D0004748194606F09CFB0346012B0CBF01231D
:1024E0000023DBB20720194603F0C2F90346002B94
:1024F0007AD13F48102106F093FA05903C4810210C
:1025000006F08EFA0490059806F002FB02AB3848FC
:10251000194606F07DFB0346022B0CBF0123002366
:10252000DBB20820194603F0A3F90346002B5BD168
:102530002F48202106F074FA0590059806F0E8FA75
:10254000049806F0E5FA02AB2948194606F060FB4C
:102550000346012B0CBF01230023DBB209201946DF
:1025600003F086F90346002B3ED102AB2048194602
:1025700006F04EFB029B1E48194606F051FA0590E4
:1025800002AB1B48194606F043FB0346002B0CBF69
:1025900001230023DBB20A20194603F069F9034640
:1025A000002B21D1059806F0B3FA02AB104819466A
:1025B00006F02EFB0346012B0CBF01230023DBB2E8
:1025C0000B20194603F054F90346002B0CD1029A54
:1025D000019B9A420CBF01230023DBB20C20194659
:1025E00003F046F90346002B07B05DF804FB00BF7B
:1025F000A01C0020000000000000000000000000FF
:1026000082B001900023184602B07047000000001D
:1026100008B503484FF4B471002206F079FB08BDF9
:1026200098080020000000000000000000000000EA
:1026300000B583B03F4B1B683F481946052206F0A2
:1026400087FB0023019312E03B4806F0D9FB0346C9
:10265000002B14BF01230023DBB20120194603F035
:1026600007F90346002B61D1019B01330193019BC4
:10267000042BE9DD304806F0C3FB0346002B0CBFFA
:1026800001230023DBB20220194603F0F1F80346D0
:10269000002B4BD1002301930AE0264A019B52F8FC
:1026A00023302548194606F0DBFB019B01330193DB
:1026B000019B042BF1DD0023019312E01E4806F07C
:1026C0009FFB0346002B14BF01230023DBB2032032
:1026D000194603F0CDF80346002B27D1019B0133A7
:1026E0000193019B042BE9DD134806F089FB0346A7
:1026F000002B0CBF01230023DBB20420194603F09A
:10270000B7F80346002B11D10B4810210B4A06F0F5
:10271000FFFA094806F074FB0346002B0CBF0123A7
:102720000023DBB20520194603F0A2F803B05DF8E0
:1027300004FB00BFC0E5000898080020012600083F
:10274000014B9B6918467047300D002000000000C7
:1027500008B5FFF7F5FF03469B68184608BD00BFA4
:1027600000B583B00190019B1B78184603F050F828
:1027700003B05DF804FB00BF000000000000000093
:1027800008B5034803494FF4E16206F019F908BDA2
:10279000C01C0020681500200000000000000000A0
:1027A00000B587B0FFF7D4FF059002AB4248194649
:1027B00006F02EFA059B5A1E404B00933E484FF4FC
:1027C000B4713F4B07F0BCFF02463E4B1A60059BBD
:1027D0009A1E3D4B009338484FF4B471384B07F0C4
:1027E000AFFF0246374B5A6003AB3348194606F039
:1027F0000FFA039B3048194606F012F90490059B26
:10280000DA1E324B00932C484FF4B4712C4B07F076
:1028100097FF02462B4B9A60049806F079F9294BF2
:102820001B68002B11D0274B5B68002B0DD0254B6C
:102830009B68002B09D1234BDB68002B05D1214B72
:102840001B69002B01D1012300E0002303F00103E9
:10285000DBB20120194603F00BF80346002B27D109
:1028600003F086F802201A4903F01AF80346002BF9
:102870001ED103AB1048194606F0CAF90346012BD6
:102880000CBF01230023DBB20320194602F0F0FF46
:102890000346002B0CD1039A029B9A420CBF0123E2
:1028A0000023DBB20420194602F0E2FF0346002BAE
:1028B00007B05DF804FB00BFC01C0020E0D9000891
:1028C00061270008701C0020E4D90008E8D900083E
:1028D000ECD900080000000000000000000000002B
:1028E00008B503484FF4B471002206F011FA08BD90
:1028F000E01C0020000000000000000000000000BC
:1029000000B583B0FFF724FF0090002301930AE095
:102910004B4A019B52F823304A48194606F0A0FA68
:10292000019B01330193019B032BF1DD009B013BD4
:1029300044481946444A454B07F042FF0246444B7F
:102940001A60009B023B3F4819463F4A414B07F043
:1029500037FF02463E4B5A60009B033B39481946FD
:10296000394A3D4B07F02CFF0246394B9A60009BD9
:10297000043B34481946344A384B07F021FF0246DD
:10298000334BDA60009B053B2E4819462E4A344BE8
:1029900007F016FF02462E4B1A612D4B1B68002BC9
:1029A00011D02B4B5B68002B0DD0294B9B68002B63
:1029B00009D0274BDB68002B05D0254B1B69002B6A
:1029C00001D1012300E0002303F00103DBB2012069
:1029D000194602F04DFF0346002B2ED102F0C8FF2E
:1029E0000220204902F05CFF0346002B25D1002382
:1029F000019312E0134806F003FA0346002B14BFBC
:102A000001230023DBB20320194602F031FF034605
:102A1000002B12D1019B01330193019B032BE9DDB4
:102A2000084806F0EDF90346002B0CBF01230023F4
:102A3000DBB20420194602F01BFF03B05DF804FB73
:102A4000C0E50008E01C002061270008E0D900086C
:102A5000701C0020E4D90008E8D90008F0D900086B
:102A6000F4D90008F8D900080000000000000000B8
:102A700000B585B0019000238DF80B3007F028FFDA
:102A800003909DF80B300399019A91420CBF0122EB
:102A90000022D2B21343002B14BF012300238DF870
:102AA0000B30039807F02CFF0390039B002BE8D119
:102AB0009DF80B30184605B05DF804FB00000000DF
:102AC00008B5034803494FF4E16205F079FF08BDFA
:102AD000C01C00206815002000000000000000005D
:102AE00000B585B0FFF734FE0390039B5A1E5F4B81
:102AF00000935F484FF4B4715E4B07F021FE0290E3
:102B0000029B93F82230012B0CBF01230023DBB280
:102B10000120194602F0ACFE0346002B40F0A380D2
:102B2000029807F095FD029B93F82230022B0CBF10
:102B300001230023DBB20220194602F099FE03466E
:102B4000002B40F09080029807F0A2FD029B93F8C2
:102B50002230012B0CBF01230023DBB203201946D6
:102B600002F086FE0346002B7DD10298FFF780FF1E
:102B700003460420194602F07BFE0346002B72D167
:102B80000298FFF775FF03460520194602F070FE14
:102B90000346002B67D1029807F07AFD029B93F859
:102BA0002230002B0CBF01230023DBB20620194684
:102BB00002F05EFE0346002B55D1029B93F82030B5
:102BC000002B0CBF01230023DBB20720194602F0C3
:102BD0004FFE0346002B46D10298FFF749FF0346FC
:102BE0000820194602F044FE0346002B3BD1029810
:102BF000FFF73EFF03460920194602F039FE03465F
:102C0000002B30D14FF4FA700AF03AF9029B93F896
:102C100020300F2B0CBF01230023DBB20A20194602
:102C200002F026FE0346002B1DD10298FFF720FF7D
:102C300003460B20194602F01BFE0346002B12D15F
:102C40000298FFF715FF0346002B14BF0123002352
:102C5000DBB283F00103DBB203F00103DBB20C2033
:102C6000194602F005FE05B05DF804FBE0D9000846
:102C7000C01C0020612700080000000000000000C8
:102C800082B020230193019B83F3118802B0704727
:102C900082B000230193019B83F3118802B0704737
:102CA00008B5FFF7EDFF07F07BFC09F029F908BD37
:102CB00008B509F03DF907F07BFC094B1B68084A91
:102CC00093420AD0064B9B699A68054B1B689B6828
:102CD0009A4202D2034808F0BBFFFFF7D9FF08BDB4
:102CE000300D0020C0E800080000000000000000D7
:102CF000014B9B6918467047300D00200000000012
:102D000008B5FFF7F5FF03469B68184608BD00BFEE
:102D100000B583B0019009F093F9019B9B681846B8
:102D200003B05DF804FB00BF0000000000000000DD
:102D300000B583B0019009F083F9019B9B68002BDB
:102D40000CBF01230023DBB2184603B05DF804FB7F
:102D500000B583B0019009F073F9019B5A69019B9A
:102D60009B699A4205D1019B9B68002B01D00123EE
:102D700000E0002303F00103DBB2184603B05DF866
:102D800004FB00BF00000000000000000000000085
:102D900000B583B0019001984FF0FF3107F088FA39
:102DA0000346184603B05DF804FB00BF00000000B6
:102DB00000B583B0019009F043F9019B1B691A46E5
:102DC000019BDB68D31A1A46019B9B68D31A1846ED
:102DD00003B05DF804FB00BF00000000000000002D
:102DE00000B583B0019009F02BF9019B5A69019B52
:102DF0009B699A4205D1019B9B68002B01D001235E
:102E000000E0002303F00103DBB2184603B05DF8D5
:102E100004FB00BF000000000000000000000000F4
:102E200000B583B0019009F00BF9019B9B68002B62
:102E30000CBF01230023DBB2184603B05DF804FB8E
:102E400000B583B001900B468DF803309DF8033038
:102E5000019819464FF0FF3205F02AFC0346184648
:102E600003B05DF804FB00BF00000000000000009C
:102E700082B0019002B07047000000000000000026
:102E800000B583B0064B1A6800230093054811462D
:102E90000422054B07F08CF903B05DF804FB00BF7A
:102EA000C0E50008A4080020712E00080000000002
:102EB00000B583B0019004484FF4FA6107F0F8F9C7
:102EC00003B05DF804FB00BFA40800200000000070
:102ED00010B584B0FFF7E4FEB448FFF729FF0346BE
:102EE0000120194602F0C4FC0346002B02D0FFF774
:102EF000DFFE59E1FFF7DCFEFFF7D2FE002303936C
:102F00000AE0039BDBB24133DBB2A848194607F065
:102F100097F9039B01330393039B032BF1D9FFF72D
:102F2000C7FEFFF7BDFEA148FFF712FF03460220D0
:102F3000194602F09DFC0346002B02D0FFF7B8FEB5
:102F400032E1FFF7B5FEFFF7ABFE9848002107F02E
:102F500077F9034613F1040F0CBF01230023DBB202
:102F60000320194602F084FC0346002B02D0FFF731
:102F70009FFE19E1FFF79CFE002303930AE08B48B4
:102F8000FFF706FF0346DBB2184602F041FC039B45
:102F900001330393039B032BF1D9FFF781FE834891
:102FA000FFF7C6FE03460420194602F061FC034603
:102FB000002B02D0FFF77CFEF6E0FFF779FE05203C
:102FC0007B4902F06DFC0346002B40F0ED80FFF7DB
:102FD00067FE002303930AE0039BDBB24133DBB2BD
:102FE0007248194607F02CF9039B01330393039BA6
:102FF000032BF1D9FFF75CFE6E4B5B686B481946FB
:103000000822002307F09CF90290029B042B0CBFBE
:1030100001230023DBB20620194602F029FC0346F7
:10302000002B40F0C180FFF73BFE6048FFF780FEB9
:1030300003460720194602F01BFC0346002B02D072
:10304000FFF736FEB0E0FFF733FEFFF729FE00235F
:1030500003930AE0039BDBB24133DBB253481946CA
:1030600007F0EEF8039B01330393039B032BF1D985
:10307000FFF71EFE4F4B5B684C48194602220023A7
:1030800007F05EF90290029B022B0CBF0123002384
:10309000DBB20820194602F0EBFB0346002B40F0A0
:1030A0008380444B5B68414819460222002307F0A5
:1030B00047F90290029B022B0CBF01230023DBB2D5
:1030C0000920194602F0D4FB0346002B6CD1FFF710
:1030D000E7FD3648FFF72CFE03460A20194602F0AA
:1030E000C7FB0346002B02D0FFF7E2FD5CE0FFF7D1
:1030F000DFFDFFF7D5FD2D48002107F0A1F82B4893
:1031000007F07EF8FFF7D4FDFFF7CAFD2748FFF769
:10311000FFFD0346002B0CBF01230023DBB20B2075
:10312000194602F0A5FB0346002B02D0FFF7C0FDB5
:103130003AE0FFF7BDFD1F4B1C68FFF7E1FD0346BA
:103140005A1C0023009320464FF4B4711A4B09F027
:1031500007FE0246194B1A60FFF7A2FD1348FFF75E
:10316000D7FD0346002B0CBF01230023DBB20C204C
:10317000194602F07DFB0346002B02D0FFF798FDB5
:1031800012E0FFF795FD02F0F3FB08480A2107F073
:103190008FF80346B3F1FF3F0CBF01230023DBB2DE
:1031A0000D20194602F064FB04B010BDA4080020F5
:1031B000F8D90008C0E50008B12E0008701C0020F6
:1031C00008B503480349052206F002FD08BD00BF0B
:1031D00068080020681500200000000000000000C2
:1031E00000B585B001F0ECFF754802F021F8034608
:1031F000052B0CBF01230023DBB20120194602F08E
:1032000037FB0346002B02D001F0E2FFF0E301F0B0
:10321000DFFF0023039319E0039B423368481946FC
:103220004FF0FF3206F04CFD0290029B002B0CBFCA
:1032300001230023DBB20220194602F019FB0346EA
:10324000002B40F0D583039B01330393039B032B97
:10325000E2D95B4841214FF0FF3206F0C1FD0290F8
:10326000029B002B0CBF01230023DBB20320194675
:1032700002F0FEFA0346002B40F0BA835048582172
:10328000012206F01DFD0290029BB3F1FF3F0CBF2F
:1032900001230023DBB20420194602F0E9FA0346B9
:1032A000002B40F0A58301F08BFF4548582106F024
:1032B00057FD029001F08CFF029BB3F1FF3F0CBF62
:1032C00001230023DBB20520194602F0D1FA0346A0
:1032D000002B40F08D833A485821012206F080FDF2
:1032E0000290029BB3F1FF3F0CBF01230023DBB22E
:1032F0000620194602F0BCFA0346002B40F0788302
:1033000001F05EFF2E48582106F0C2FD029001F048
:103310005FFF029BB3F1FF3F0CBF01230023DBB231
:103320000720194602F0A4FA0346002B40F0608300
:1033300001F046FF224801F07BFF0346002B0CBF43
:1033400001230023DBB20820194602F091FA03465C
:10335000002B02D001F03CFF4AE301F039FF01F0FD
:103360002FFF174801F074FF0346052B0CBF012304
:103370000023DBB20920194602F07AFA0346002B3B
:1033800002D001F025FF33E301F022FF01F018FF26
:103390000B4BDA680A4B9B689A420CBF012300234F
:1033A000DBB20A20194602F063FA0346002B02D072
:1033B00001F00EFF1CE301F00BFF002303931FE05D
:1033C0006808002001ABB14819464FF0FF3206F003
:1033D0009FFD0290029B002B0CBF01230023DBB258
:1033E0000B20194602F044FA0346002B40F00083FC
:1033F000019BDBB2184602F00BFA039B01330393E7
:10340000039B042BDED90C20A14902F049FA0346A4
:10341000002B40F0ED82039B42339C4819464FF04D
:10342000FF3206F04DFC0290029B002B0CBF0123E3
:103430000023DBB20D20194602F01AFA0346002BD6
:1034400040F0D68201AB914819464FF0FF3206F0AA
:103450005FFD0290029B002B0CBF01230023DBB217
:103460000E20194602F004FA0346002B40F0C082F9
:10347000864B1A68854B9B689A420CBF0123002338
:10348000DBB20F20194602F0F3F90346002B40F09F
:10349000AF827E4B1A687D4BDB689A420CBF0123DA
:1034A0000023DBB21020194602F0E2F90346002B9C
:1034B00040F09E8201AB75481946012206F028FDB6
:1034C0000290029BB3F1FF3F0CBF01230023DBB24C
:1034D0001120194602F0CCF90346002B40F08882F7
:1034E00001F06EFE01AB6948194606F069FD0290D5
:1034F00001F06EFE029BB3F1FF3F0CBF01230023DE
:10350000DBB21220194602F0B3F90346002B40F05B
:103510006F8201F055FE5D4801F08AFE0346052BDF
:103520000CBF01230023DBB21320194602F0A0F9DF
:103530000346002B02D001F04BFE59E201F048FE99
:1035400001F03EFE514801F083FE0346002B0CBF04
:1035500001230023DBB21420194602F089F9034647
:10356000002B02D001F034FE42E201F031FE01F006
:1035700027FE464BDA68454B9B689A420CBF0123F5
:103580000023DBB21520194602F072F90346002B26
:1035900002D001F01DFE2BE201F01AFE01F010FE38
:1035A0003A48412106F0DCFB0290029B002B0CBF45
:1035B00001230023DBB21620194602F059F9034615
:1035C000002B40F015823148422106F0C9FB0290E1
:1035D000029B002B0CBF01230023DBB217201946EE
:1035E00002F046F90346002B40F0028227484321AF
:1035F00006F0B6FB0290029B002B0CBF01230023B8
:10360000DBB21820194602F033F90346002B40F0D4
:10361000EF811E48442106F0A3FB0290029B002B81
:103620000CBF01230023DBB21920194602F020F958
:103630000346002B40F0DC811448452106F090FB46
:10364000029001F0C5FD029B002B0CBF012300235B
:10365000DBB21A20194602F00BF90346002B40F0AA
:10366000C7810A4BDA68094B9B689A420CBF012359
:103670000023DBB21B20194602F0FAF80346002BA8
:1036800040F0B6810023039324E000BF68080020C7
:1036900000DA000801F094FD01ABBB48194606F0C2
:1036A0008FFC029001F094FD029B002B0CBF0123C4
:1036B0000023DBB21C20194602F0DAF80346002B87
:1036C00040F09681019BDBB2184602F0A1F8039B03
:1036D00001330393039B042BDCD91D20AB4902F07B
:1036E000DFF80346002B40F0838101F069FDA64816
:1036F00001F09EFD0346052B0CBF01230023DBB226
:103700001E20194602F0B4F80346002B02D001F047
:103710005FFD6DE101F05CFD01F052FD9A4801F0A2
:1037200097FD0346002B0CBF01230023DBB21F20B3
:10373000194602F09DF80346002B02D001F048FD27
:1037400056E101F045FD904BDA688F4B9B689A4239
:103750000CBF01230023DBB22020194602F088F8B9
:103760000346002B40F0448101F02AFD86484521A4
:1037700006F08EFB0290029B002B0CBF012300235E
:10378000DBB22120194602F073F80346002B40F00B
:103790002F817D48442106F07BFB0290029B002B89
:1037A0000CBF01230023DBB22220194602F060F88F
:1037B0000346002B40F01C817348432106F068FB50
:1037C0000290029B002B0CBF01230023DBB22320BD
:1037D000194602F04DF80346002B40F009816A4873
:1037E000422106F055FB0290029B002B0CBF0123E7
:1037F0000023DBB22420194602F03AF80346002BDE
:1038000040F0F6806048412106F042FB029001F052
:10381000DFFC029B002B0CBF01230023DBB2252021
:10382000194602F025F80346002B40F0E180564B84
:10383000DA68554B9B689A420CBF01230023DBB228
:103840002620194602F014F80346002B40F0D080E1
:10385000002303931FE001F0B3FC01AB4A48194673
:1038600006F0AEFB029001F0B3FC029B002B0CBFF4
:1038700001230023DBB22720194601F0F9FF03469C
:10388000002B40F0B580019BDBB2184601F0C0FF71
:10389000039B01330393039B042BDCD928203B4972
:1038A00001F0FEFF0346002B40F0A28001F088FCEF
:1038B000354801F0BDFC0346052B0CBF0123002356
:1038C000DBB22920194601F0D3FF0346002B02D0BA
:1038D00001F07EFC8CE001F07BFC01F071FC2A48D9
:1038E00001F0B6FC0346002B0CBF01230023DBB222
:1038F0002A20194601F0BCFF0346002B02D001F03C
:1039000067FC75E001F064FC1F4BDA681E4B9B6896
:103910009A420CBF01230023DBB22B20194601F091
:10392000A7FF0346002B63D1174806F089F901F081
:1039300047FC154801F07CFC0346052B0CBF012316
:103940000023DBB22C20194601F092FF0346002B26
:1039500002D001F03DFC4BE001F03AFC01F030FCFC
:10396000094801F075FC0346002B0CBF012300231E
:10397000DBB22D20194601F07BFF0346002B07D058
:1039800001F026FC34E000BF6808002000DA0008DF
:1039900001F01EFC01F014FC174B1A68164B9B68D3
:1039A0009A420CBF01230023DBB22E20194601F0FE
:1039B0005FFF0346002B02D001F00AFC18E001F083
:1039C00007FC01F0FDFB0C4B1A680B4BDB689A42BD
:1039D0000CBF01230023DBB22F20194601F048FF62
:1039E0000346002B02D001F0F3FB01E001F0F0FBF5
:1039F00005B05DF804FB00BF68080020000000006F
:103A000082B020230193019B83F3118802B0704799
:103A100082B000230193019B83F3118802B07047A9
:103A20004FF080435B6A1846704700BF00000000FB
:103A300008B5FFF7F5FF0346184608BD0000000073
:103A400008B5FFF7DDFF06F0ABFD08F059FA08BD39
:103A500008B508F06DFA06F0ABFD094B1B68084A83
:103A600093420AD0064B9B699A68054B1B689B687A
:103A70009A4202D2034808F0EBF8FFF7C9FF08BDED
:103A8000300D002000E800080000000000000000E9
:103A900008B5FFF7CDFF0346184608BD000000003B
:103AA00000B583B0FFF7CCFFFFF7F2FF0190FFF7FF
:103AB000CFFF019B184603B05DF804FB0000000037
:103AC000014B9B6918467047300D00200000000034
:103AD00008B5FFF7F5FF03469B68184608BD00BF11
:103AE00082B00190019B019A1A6002B0704700BF3A
:103AF00000B585B003900291019203980299019A52
:103B00004FF0FF3305F034FC05B05DF804FB00BF57
:103B100082B00190019B1A68019B9A4214BF012355
:103B20000023DBB2184602B0704700BF000000005F
:103B300000B583B001900198002105F049FD03B064
:103B40005DF804FB00000000000000000000000021
:103B500008B54FF0FF3005F06BFC08BD0000000019
:103B600000B583B00190412001F052FE03B05DF832
:103B700004FB00BF00000000000000000000000087
:103B800000B583B00190422001F042FE03B05DF821
:103B900004FB00BF00000000000000000000000067
:103BA00000B583B00190432001F032FE03B05DF810
:103BB00004FB00BF00000000000000000000000047
:103BC00000B58BB02848FFF78BFF05AB2648194698
:103BD0000122FFF78DFF6B46234819460222FFF7AB
:103BE00087FF2148FFF794FF03460120194601F0A3
:103BF0003FFE0346002B34D105AB1B48194605F0A8
:103C0000E7FB1948FFF784FF03460220194601F03D
:103C10002FFE0346002B24D16B461348194605F0AE
:103C2000D7FB1148FFF774FF0346002B14BF012395
:103C30000023DBB283F00103DBB203F00103DBB24C
:103C40000320194601F014FE0346002B09D1074852
:103C5000072105F0D5FC0420054901F021FE0346AB
:103C6000002B0BB05DF804FB90080020B0E70008C3
:103C700008DA00080000000000000000000000005A
:103C800008B54FF0FF3005F0D3FB08BD0000000081
:103C900000B583B001904FF4FA7009F0F1F8019883
:103CA000012105F03DFC03B05DF804FB00000000BD
:103CB00000B583B001900648FFF73AFF4FF4FA7061
:103CC00009F0DEF80348FFF733FF03B05DF804FBAB
:103CD0009008002094080020000000000000000070
:103CE00030B58FB0072005F0C3FB4FF0FF3005F073
:103CF000C7FC0D900D9B012B0CBF01230023DBB2F1
:103D00000120194601F0B4FD0346002B40F08281EA
:103D10004FF0FF3005F0B4FC0D900D9B022B0CBF53
:103D200001230023DBB20220194601F0A1FD034666
:103D3000002B40F06F814FF0FF3005F0A1FC0D909B
:103D40000D9B042B0CBF01230023DBB2032019467B
:103D500001F08EFD0346002B40F05C814FF0FF30F8
:103D600005F066FB0D900D9B002B0CBF012300237B
:103D7000DBB20420194601F07BFD0346002B40F026
:103D8000498101F01DFEFFF78BFE034603F5FA7330
:103D90000C93A14B1D68FFF79BFE03465C1EFFF7CB
:103DA0008FFE0346009328464FF4B47122469B4B86
:103DB00008F0D6FF02469A4B1A604FF0FF3005F02C
:103DC0005FFC0D900C9B323305200C991A4601F0D4
:103DD00097FD0346002B40F01D810D9B012B0CBF6E
:103DE00001230023DBB20620194601F041FD034602
:103DF000002B40F00F814FF0FF3005F019FB0D90C4
:103E00000D9B002B0CBF01230023DBB207201946BA
:103E100001F02EFD0346002B40F0FC8001F0A8FDD0
:103E2000052005F025FB4FF0FF3005F059FC0D9003
:103E30000D9B052B0CBF01230023DBB20820194684
:103E400001F016FD0346002B40F0E4804FF0FF30F8
:103E500005F0EEFA0D900D9B002B0CBF0123002303
:103E6000DBB20920194601F003FD0346002B40F0A8
:103E7000D18001F0A5FDFFF713FE034603F5FA73A9
:103E80000C93654B1D68FFF723FE03465C1EFFF78E
:103E900017FE0346009328464FF4B47122465F4B49
:103EA00008F05EFF02465E4B1A604FF0FF3005F0EF
:103EB00017FC0D900C9B32330A200C991A4601F026
:103EC0001FFD0346002B40F0A5800D9B012B0CBF6E
:103ED00001230023DBB20B20194601F0C9FC034685
:103EE000002B40F097804FF0FF3005F0A1FA0D90C5
:103EF0000D9B002B0CBF01230023DBB20C201946C5
:103F000001F0B6FC0346002B40F0848001F030FD48
:103F10004448FFF7E5FD4448FFF7E2FD07AB4148A1
:103F200019460122FFF7E4FD02AB3F48194604227F
:103F3000FFF7DEFD01F044FDFFF7B2FD034603F598
:103F4000FA730C93344B1C68FFF7C2FD03465A1EEC
:103F5000364B009320464FF4B471354B08F000FF08
:103F600002462F4B1A60052005F0EAFB0D900C9BD2
:103F700032330D200C991A4601F0C2FC0346002B87
:103F800048D14FF0FF3005F053FA0D900D9B002BF8
:103F90000CBF01230023DBB20E20194601F068FCA0
:103FA0000346002B36D101F0E3FC07AB1D48194650
:103FB00005F00EFA02AB1C48194605F009FA19483B
:103FC000FFF7A6FD0346002B14BF01230023DBB23D
:103FD00083F00103DBB203F00103DBB20F201946CB
:103FE00001F046FC0346002B14D10F48FFF790FD6B
:103FF0000346002B14BF01230023DBB283F001032F
:10400000DBB203F00103DBB21020194601F030FCF3
:104010000346002B0FB030BDC0E50008913C0008FE
:10402000701C002090080020940800200CDA000882
:10403000B13C00080000000000000000000000008B
:1040400010B582B0514B1C6802F09AF903465A1D14
:104050004F4B009320464FF4B4714E4B08F080FE56
:1040600002464D4B1A60494B5C6802F089F90346E1
:104070005A1C4A4B009320464FF4B471454B08F04C
:104080006FFE0246444B5A60404B9C6802F078F940
:104090000346DA1C424B009320464FF4B4713D4B6B
:1040A00008F05EFE02463C4B9A60384BDC6802F03A
:1040B00067F903461A1D3B4B009320464FF4B47139
:1040C000344B08F04DFE0246334BDA602F4B1C692F
:1040D00002F056F903469A1C334B009320464FF4E6
:1040E000B4712C4B08F03CFE02462B4B1A612F4852
:1040F00006F046FE2D4806F043FE2C4806F040FE32
:104100002A4806F03DFE294806F03AFE01F030FC50
:104110000120274901F0C4FB0346002B33D11B4B80
:104120001C6802F02DF903465A1D194B00932046D6
:104130004FF4B471174B08F013FE0246164B1A6089
:1041400002F0D6F81948022106F0AAFE08F050FB4A
:1041500002F0D6F801F00CFC02F0CAF8134802F0A5
:1041600017F90346012B0CBF01230023DBB2022009
:10417000194601F07DFB0346002B02D002F0C0F887
:1041800001E002F0BDF802B010BD00BFC0E50008BC
:1041900010DA0008A1640008701C002014DA00087E
:1041A00018DA00081CDA000820DA000834080020B9
:1041B00024DA0008000000000000000000000000F9
:1041C00008B50248002106F07BFC08BD3408002039
:1041D00000B583B001904FF4FA7008F051FE02F080
:1041E00087F8054806F014FE08F002FB02F088F894
:1041F00003B05DF804FB00BF34080020000000009D
:1042000010B586B06148002106F042FD0490049B81
:10421000B3F1FF3F0CBF01230023DBB2012019469D
:1042200001F026FB0346002B40F0AD80574802F01A
:104230004FF803460220194601F01AFB0346002BF3
:1042400040F0A180514B9B68002B0CBF0123002341
:10425000DBB20320194601F00BFB0346002B40F0B4
:1042600092804B4B1C6802F08BF803465A1E0023C9
:10427000009320464FF4B471464B08F071FD02469E
:10428000454B1A60414841F2883106F001FD049027
:1042900001F06EFB049B002B0CBF01230023DBB25B
:1042A0000420194601F0E4FA0346002B6BD137488D
:1042B00002F00EF803460520194601F0D9FA03462C
:1042C000002B60D1314B9B68002B0CBF01230023D6
:1042D000DBB20620194601F0CBFA0346002B52D17F
:1042E00001F06EFB02F034F8034603F6C4130393A7
:1042F0000023059336E0059BDBB24133DBB2184661
:1043000001F086FA21484FF4FA7106F0C1FC0490DE
:10431000049BB3F1FF3F0CBF01230023DBB2072056
:10432000194601F0A5FA0346002B2CD1174801F0DD
:10433000CFFF03460820194601F09AFA0346002BE6
:1043400021D1124B9B68002B0CBF01230023DBB251
:104350000920194601F08CFA0346002B13D1059B66
:1043600001330593059B042BC5DD0A200B4901F0A1
:1043700097FA0346002B06D1039B14330B200399B5
:104380001A4601F0BDFA06B010BD00BF3408002087
:10439000C0E50008D1410008701C002024DA0008A4
:1043A00008B50248002106F08BFB08BD3408002048
:1043B00000B583B00190044806F00AFC024806F0FC
:1043C000DFFC03B05DF804FB3408002000000000AF
:1043D00010B582B0244B1C6801F0D2FF03465A1C72
:1043E0000023009320464FF4B471204B08F0B8FC32
:1043F00002461F4B1A601F481E4906F0A1FD1D48CA
:1044000001F066FF03460120194601F031FA034628
:10441000002B27D1174B9B68002B0CBF01230023D7
:10442000DBB20220194601F023FA0346002B19D112
:104430001048104906F084FD0E4801F049FF03467C
:104440000320194601F014FA0346002B0AD1094B48
:104450009B68002B0CBF01230023DBB2042019460C
:1044600001F006FA02B010BDC0E50008B143000833
:10447000701C002034080020000000000000000034
:1044800000B583B00190019801F0E2FF03B05DF840
:1044900004FB00BF0000000000000000000000005E
:1044A00010B586B003AB1846012101F081FF03ABC4
:1044B0001846012101F0A4FF01F01AFF03AB1846D2
:1044C00001F0D6FF0346002B14BF01230023DBB20B
:1044D0000120194601F0CCF90346002B02D001F06F
:1044E0000FFFA2E001F00CFF514B1C6801F048FFE8
:1044F00003465A1E03AB009320464FF4B4714D4B54
:1045000008F02EFC02464C4B1A6003AB184601F033
:1045100067FF01F0EDFE03AB184601F0A9FF03466B
:10452000002B14BF01230023DBB20220194601F047
:104530009FF90346002B02D001F0E2FE75E001F086
:10454000DFFE03AB184601F083FF01F0D1FE03ABA1
:10455000184601F08DFF0346002B14BF01230023F2
:10456000DBB283F00103DBB203F00103DBB2032013
:10457000194601F07DF90346002B02D001F0C0FE80
:1045800053E001F0BDFE01F0B3FE03AB184601F0AD
:10459000FFFE0346012B0CBF01230023DBB20420E6
:1045A000194601F065F90346002B02D001F0A8FE80
:1045B0003BE001F0A5FE03AB184601F049FF01F016
:1045C00097FE03AB184601F053FF0346002B14BFC0
:1045D00001230023DBB283F00103DBB203F001030C
:1045E000DBB20320194601F043F90346002B02D049
:1045F00001F086FE19E001F083FE01F079FE03ABC5
:10460000184601F0C5FE0346012B0CBF0123002311
:10461000DBB20520194601F02BF90346002B02D02E
:1046200001F06EFE01E001F06BFE06B010BD00BFB0
:10463000C0E5000881440008701C00200000000054
:1046400082B020230193019B83F3118802B070474D
:1046500082B000230193019B83F3118802B070475D
:1046600082B00190019B1A68019B9A420CBF012302
:104670000023DBB2184602B0704700BF0000000004
:1046800008B5FFF7DDFF05F08BFF07F039FC08BD2B
:1046900008B507F04DFC05F08BFF094B1B68084A75
:1046A00093420AD0064B9B699A68054B1B689B682E
:1046B0009A4202D2034807F0CBFAFFF7C9FF08BDC0
:1046C000300D002050E7000800000000000000004E
:1046D000014B9B6918467047300D00200000000018
:1046E00008B5FFF7F5FF03469B68184608BD00BFF5
:1046F00008B5024806F06CFD08BD00BF4008002068
:1047000000B583B00190074806F07AFD019B1B7845
:10471000184601F07DF8034806F042FE03B05DF84C
:1047200004FB00BF40080020000000000000000063
:1047300000B585B0FFF7D4FF0390354806F060FD63
:10474000344B1968039B5A1C334B009308464FF4B3
:10475000B471324B08F004FB0246314B1A602D4B0A
:104760005968039B9A1C2F4B009308464FF4B47171
:104770002A4B08F0F5FA0246294B5A60254B9968F6
:10478000039BDA1C284B009308464FF4B471234B6B
:1047900008F0E6FA0246224B9A601E4BD968039B4A
:1047A0001A1D224B009308464FF4B4711B4B08F0BE
:1047B000D7FA02461A4BDA60164B1969039B5A1D49
:1047C0001B4B009308464FF4B471144B08F0C8FA21
:1047D0000246134B1A610E4806F0E2FD01F0C8F8DC
:1047E000FFF77EFF0246039B9A420CBF0123002382
:1047F000DBB20120194601F03BF80346002B03D140
:1048000002200C4901F04CF805B05DF804FB00BF34
:1048100040080020C0E5000820DA00080147000831
:10482000701C00201CDA000818DA000814DA0008EE
:1048300010DA000824DA0008000000000000000080
:1048400008B5034806F0C4FC024806F0C1FC08BDE8
:104850004008002050080020000000000000000078
:1048600000B583B001904FF4FA7008F009FB0448DA
:1048700006F0C6FC024806F093FD03B05DF804FBA9
:1048800050080020000000000000000000000000B0
:1048900000B583B0019040F2DC5008F0F1FA044812
:1048A00006F0AEFC024806F07BFD03B05DF804FBA9
:1048B0004008002000000000000000000000000090
:1048C00000B587B0FFF70CFF0590059B01330493FB
:1048D000059B02330393AD4B1A68AD4B0093104612
:1048E0004FF4B471049AAB4B08F03AFA0246AA4B63
:1048F0001A60A64B5A68A94B009310464FF4B47146
:10490000039AA74B08F02CFA0246A34B5A60A5481D
:1049100006F076FCFFF7E4FE0246059B9A420CBFC8
:1049200001230023DBB20120194600F0A1FF03465A
:10493000002B40F027814FF47A7008F0A1FAFFF7BE
:10494000CFFE0246049B9A420CBF01230023DBB238
:104950000220194600F08CFF0346002B40F0128124
:10496000914806F04DFCFFF7BBFE0246049B9A42BD
:104970000CBF01230023DBB20320194600F078FFAF
:104980000346002B40F0FE804FF47A7008F078FA6E
:10499000FFF7A6FE0246039B9A420CBF01230023A9
:1049A000DBB20420194600F063FF0346002B40F001
:1049B000E9807D4806F0F4FCFFF792FE0246049B76
:1049C0009A420CBF01230023DBB20520194600F0F8
:1049D0004FFF0346002B40F0D5804FF47A7008F06B
:1049E0004FFAFFF77DFE0246049B9A420CBF01235B
:1049F0000023DBB20620194600F03AFF0346002BE5
:104A000040F0C08006F0B4FDFFF76AFE0246059B49
:104A10009A420CBF01230023DBB20720194600F0A5
:104A200027FF0346002B40F0AD8000F0A1FF574B5D
:104A30001A685E4B009310464FF4B471049A554BBC
:104A400008F08EF90246544B1A60504B5A68584B86
:104A5000009310464FF4B471039A514B08F080F95B
:104A600002464D4B5A604F4806F0CAFBFFF738FE2E
:104A70000246059B9A420CBF01230023DBB20820AB
:104A8000194600F0F5FE0346002B7BD14FF47A70F7
:104A900008F0F6F9FFF724FE0246049B9A420CBF89
:104AA00001230023DBB20920194600F0E1FE034692
:104AB000002B67D13C4806F0A3FBFFF711FE02462E
:104AC000049B9A420CBF01230023DBB20A20194643
:104AD00000F0CEFE0346002B54D14FF47A7008F05C
:104AE000CFF9FFF7FDFD0246039B9A420CBF01235D
:104AF0000023DBB20B20194600F0BAFE0346002B60
:104B000040D1FFF7BDFD284806F0C2FC07F070FE5B
:104B1000FFF7BEFDFFF7E4FD0246049B9A420CBF7F
:104B200001230023DBB20C20194600F0A1FE03464E
:104B3000002B27D14FF47A7008F0A2F9FFF7D0FDCF
:104B40000246049B9A420CBF01230023DBB20D20D6
:104B5000194600F08DFE0346002B13D106F008FD28
:104B6000FFF7BEFD0246059B9A420CBF01230023BE
:104B7000DBB20E20194600F07BFE0346002B01D16C
:104B800000F0F6FE07B05DF804FB00BFC0E50008CA
:104B900014DA000861480008701C002010DA0008D0
:104BA0009148000850080020400800201CDA000846
:104BB00018DA0008000000000000000000000000FB
:104BC00008B5024806F004FB08BD00BF40080020FD
:104BD00000B583B0FFF784FD01903B4806F0A0FBD1
:104BE00003468DF803309DF803300120194600F08C
:104BF0003FFE0346002B64D1334806F091FB034689
:104C00008DF803309DF80330002B14BF01230023DF
:104C1000DBB283F00103DBB203F00103DBB202205D
:104C2000194600F025FE0346002B4AD1FFF728FD68
:104C3000254806F02DFCFFF72BFD2348FFF710FD5C
:104C400003460320194600F013FE0346002B38D11B
:104C50001D4B9B68002B0CBF01230023DBB20420FB
:104C6000194600F005FE0346002B2AD1FFF738FD58
:104C70000246019B9A420CBF01230023DBB20520B0
:104C8000194600F0F5FD0346002B1AD10E4806F038
:104C9000B7FA06F06DFC0C48FFF7E2FC034606206D
:104CA000194600F0E5FD0346002B0AD1064B9B6830
:104CB000002B0CBF01230023DBB20720194600F0B4
:104CC000D7FD03B05DF804FB4008002000000000A1
:104CD00008B5034804F0D4F9024806F079FA08BD93
:104CE00060080020400800200000000000000000D4
:104CF00000B583B00190084806F082FA074804F036
:104D00005FFA019B1B78184600F082FD024806F00E
:104D100047FB03B05DF804FB40080020600800205A
:104D200000B585B0FFF7DCFC0390344B1968039B9A
:104D30005A1C334B009308464FF4B471314B08F0C2
:104D40000FF80246304B1A602C4B5968039B9A1C93
:104D50002E4B009308464FF4B4712A4B08F000F82C
:104D60000246294B5A60254B9968039BDA1C284B55
:104D7000009308464FF4B471224B07F0F1FF02464E
:104D8000214B9A601D4BD968039B1A1D214B009340
:104D900008464FF4B4711B4B07F0E2FF02461A4B72
:104DA000DA60164B1969039B5A1D1B4B009308468A
:104DB0004FF4B471134B07F0D3FF0246124B1A6144
:104DC000FFF75EFC154804F09BF9144804F098F9CD
:104DD000124804F095F9114804F092F90F4804F0D4
:104DE0008FF907F005FDFFF753FC00F0C1FD01202E
:104DF0000B4900F055FD05B05DF804FBC0E5000867
:104E000020DA0008F14C0008701C00201CDA0008B1
:104E100018DA000814DA000810DA00086008002028
:104E200024DA00080000000000000000000000007C
:104E300008B5034804F024F9024806F0C9F908BD92
:104E40006008002040080020000000000000000072
:104E500000B585B0FFF744FC03902B4B1968039B0A
:104E60005A1C2A4B009308464FF4B471284B07F0A4
:104E700077FF0246274B1A60234B5968039B9A1C05
:104E8000254B009308464FF4B471214B07F068FF9F
:104E90000246204B5A601C4B9968039BDA1C1F4B3F
:104EA000009308464FF4B471194B07F059FF0246BE
:104EB000184B9A60144BD968039B1A1D184B00932A
:104EC00008464FF4B471124B07F04AFF0246114BEB
:104ED000DA600D4B1969039B5A1D124B009308466B
:104EE0004FF4B4710A4B07F03BFF0246094B1A61BD
:104EF0000D4804F02DF900F03BFD01200B4900F0B6
:104F0000CFFC05B05DF804FBC0E5000820DA00081E
:104F1000F14C0008701C00201CDA000818DA0008A8
:104F200014DA000810DA00086008002024DA00080B
:104F300008B5054804F0A4F8044806F049F9044807
:104F400006F046F908BD00BF6008002040080020B8
:104F500050080020000000000000000000000000D9
:104F600000B583B001900C4806F04AF90B4806F0F2
:104F700047F90B484FF0FF3104F06AF9019B1B78A9
:104F8000184600F045FC054806F00AFA024806F00B
:104F900007FA03B05DF804FB500800204008002029
:104FA0006008002000000000000000000000000079
:104FB00000B583B00190074806F022F9019B1B78E9
:104FC000184600F025FC034806F0EAF903B05DF846
:104FD00004FB00BF5008002000000000000000009B
:104FE00000B585B0FFF77CFB03901E4B1968039B4F
:104FF0005A1C1D4B009308464FF4B4711B4B07F02D
:10500000AFFE02461A4B1A60164B5968039B9A1C56
:10501000184B009308464FF4B471174B07F0A0FEED
:105020000246134B5A600F4B9968039BDA1C134BD3
:10503000009308464FF4B471114B07F091FE0246FD
:105040000B4B9A600F4804F033F80E4804F030F828
:1050500000F08EFC01200C4900F022FC05B05DF848
:1050600004FB00BFC0E5000810DA0008614F00082B
:10507000701C002018DA0008F14C000814DA00084F
:10508000B14F0008600800202CDA00080000000082
:10509000014B9B6918467047300D0020000000004E
:1050A00008B5FFF7F5FF03469B68184608BD00BF2B
:1050B00082B00190019B5B6B184602B0704700BF45
:1050C00000B583B001900198412104F0A9FC01983A
:1050D000422104F0A5FC0198432104F0A1FC03B097
:1050E0005DF804FB0000000000000000000000006C
:1050F00030B585B0244B1D68FFF7D2FF03465C1C1A
:10510000FFF7C6FF0346009328464FF4B4712246CA
:105110001E4B07F025FE02461D4B1A6004F0B8FC3A
:1051200003900398FFF7C4FF02900398029904F0DC
:10513000D7FC029BDBB2184600F06AFB04F0A8FC27
:1051400003900398FFF7B4FF02900398029904F0CC
:10515000C7FC029BDBB2184600F05AFB04F098FC37
:1051600003900398FFF7A4FF02900398029904F0BC
:10517000B7FC029BDBB2184600F04AFB0120054950
:1051800000F08EFB05B030BDC0E50008C15000083E
:10519000701C00202CDA0008000000000000000055
:1051A00082B020230193019B83F3118802B07047E2
:1051B00082B000230193019B83F3118802B07047F2
:1051C00008B5FFF7EDFF05F0EBF906F099FE08BD15
:1051D00008B506F0ADFE05F0EBF9094B1B68084A6F
:1051E00093420AD0064B9B699A68054B1B689B68E3
:1051F0009A4202D2034806F02BFDFFF7D9FF08BD03
:10520000300D0020A0E700080000000000000000B2
:1052100000B583B0019006F013FF019B9B68184610
:1052200003B05DF804FB00BF0000000000000000B8
:1052300000B583B0019006F003FF019B1C331846B4
:10524000FFF7E6FF0346184603B05DF804FB00BF16
:1052500000B583B0019006F0F3FE019B10331846B1
:10526000FFF7D6FF0346184603B05DF804FB00BF06
:1052700000B587B00190019B5B6F0493049BDB68D2
:10528000ADF80E30049B1B68ADF81630BDF8163033
:1052900003F48073002B0ED002F0C2F9019B04339B
:1052A00018464FF4007102F0CBF9049B6FF4807242
:1052B0001A6002F0BDF902F0B3F91FE0BDF8163034
:1052C00003F00F03002B05D0BDF8163001981946E6
:1052D00002F016FA049B5B688DF80D30BDF81630AD
:1052E00003F02003002B05D09DF80D3001981946DE
:1052F00002F02EFD049B1B68ADF81630BDF8163089
:1053000003F02F03002BD9D102F092F9BDF80E3033
:1053100003F08003002B24D0BDF8163003F0800387
:10532000002B1ED002F07CF9019B3033184603F0AD
:1053300007FA0290029B002B0EDA019B04331846F9
:10534000082102F07DF9BDF80E3023F0C00343F0D0
:105350004002049BDA6002E0029A049B5A6002F069
:1053600067F9BDF8163003F04003002B1BD002F0A4
:1053700057F9019B3033184602F032F90346002BEF
:1053800005D0019B04331846102102F059F9BDF8ED
:105390000E3023F04002049BDA60049B6FF0400261
:1053A0001A6002F045F907B05DF804FB0000000048
:1053B00082B00190034A034BDB6843F08003D36063
:1053C00002B0704700100140000000000000000023
:1053D00082B00190034A034BDB6843F08003D36043
:1053E00002B07047004400400000000000000000D0
:1053F00008B505F0A5F806F0E3FD0448FFF738FF0F
:1054000006F0FEFD03F074FD08BD00BF5C14002033
:1054100008B505F095F806F0D3FD0448FFF728FF1E
:1054200006F0EEFD03F064FD08BD00BFD4140020BB
:1054300008B508480021084A02F02AFC054B074A33
:105440005A6707480021074A02F022FC044B064A2B
:105450005A6708BD5C140020B153000800100140D9
:10546000D4140020D1530008004400400000000084
:1054700000B583B001900091009B002B01D1144B2B
:105480000093019B1B7A012B1BD1019B114A934274
:1054900009D1114A104B5B6C43F010035364252073
:1054A0000C2102F08DFC019B0C4A934209D10A4A5F
:1054B000094B1B6C43F40033136426200C2102F0CB
:1054C0007FFC0198009902F0CBF803B05DF804FB73
:1054D00000E500085C14002000380240D4140020CD
:1054E00008B502F0F5FC08BD000000000000000057
:1054F000704700BF00000000000000000000000036
:1055000082B020230193019B83F3118802B070477E
:1055100082B000230193019B83F3118802B070478E
:105520004FF080435B6A1846704700BF00000000E0
:1055300008B5FFF7F5FF0346184608BD0000000058
:1055400008B5FFF7DDFF05F02BF806F0D9FC08BD24
:1055500008B506F0EDFC05F02BF8094B1B68084A6E
:1055600093420AD0064B9B699A68054B1B689B685F
:105570009A4202D2034806F06BFBFFF7C9FF08BD51
:10558000300D0020E0E500080000000000000000F1
:1055900008B5FFF7CDFF0346184608BD0000000020
:1055A00000B583B0FFF7CCFFFFF7F2FF0190FFF7E4
:1055B000CFFF019B184603B05DF804FB000000001C
:1055C00084B0039002910192039A029BD21A01992E
:1055D000029BCB1A9A4234BF01230023DBB2184648
:1055E00004B0704700000000000000000000000050
:1055F00000B583B001900091FFF7D2FF0346184633
:105600000199009AFFF7DCFF0346184603B05DF8E6
:1056100004FB00BF000000000000000000000000CC
:1056200000B583B0019006F00BFD019BDB68002BF9
:1056300014BF01230023DBB2184603B05DF804FB5E
:1056400000B583B001900198FFF7EAFF0346002BF5
:1056500002D0019806F04CFE03B05DF804FB00BFD9
:1056600000B585B003900291019200930398FFF773
:10567000E7FF03980299019A009B06F0A9FD05B087
:105680005DF804FB000000000000000000000000C6
:1056900000B585B00390029101920093FFF750FF8F
:1056A00003980299019A009BFFF7DAFFFFF750FF7A
:1056B00005B05DF804FB00BF000000000000000022
:1056C00000B589B00190019B002B09D11E4B1B68CE
:1056D0001B689B681C4A12681046302198472FE0CF
:1056E00003AB079316E007994B1C07930198174BE0
:1056F000A3FB0023DA0813469B0013445B00C21A85
:10570000D3B23033DBB20B70019B104AA2FB0323F0
:10571000DB080193019B002BE5D10DE00A4B1B68D0
:105720001B689B68084A1168079A013A0792079A12
:10573000127808461146984703AB079A9A42EDD86B
:1057400009B05DF804FB00BF841C0020CDCCCCCC9C
:1057500000B583B001900BE0094B1B681B689A6889
:10576000074B1868019B591C01911B7819469047FB
:10577000019B1B78002BEFD103B05DF804FB00BF49
:10578000841C002000000000000000000000000059
:1057900000B583B001900198FFF7DAFF064B1B6854
:1057A0001B681B68044A1268104604490222984785
:1057B00003B05DF804FB00BF841C002030DA000851
:1057C000014B024A1A6070476415002054150020EE
:1057D00000B583B00B4B01930BE00B4B1B681B68B0
:1057E0009A68094B1868019B591C01911B7819464E
:1057F0009047064B1B68019A9A42EED303B05DF8BE
:1058000004FB00BF54150020841C002064150020F8
:1058100000B583B003468DF80730FFF791FE064BC5
:105820001B685A1C04490A609DF807201A70FFF78C
:105830008FFE03B05DF804FB64150020000000003B
:1058400082B00190064B01221A70064B01221A7099
:10585000054A019B13600123184602B0704700BF40
:105860004C1500204D1500205015002000000000B0
:1058700000B583B001900B468DF803309DF80330DE
:1058800083F00103DBB2002B04D00198FFF7D8FFAF
:10589000034600E00023184603B05DF804FB00BF98
:1058A00000B585B001900091134B03930EE0039B6C
:1058B0005A1C03921A78009B591C00911B789A423B
:1058C00004D00198FFF7BCFF034610E00B4B1B68A8
:1058D000039A9A42EBD3009B1B78002B04D00198CB
:1058E000FFF7AEFF034602E0FFF76AFF002318460A
:1058F00005B05DF804FB00BF5415002064150020BE
:1059000000B585B003900291019202980199FFF7CA
:105910006FFE034603981946FFF7AAFF0346184691
:1059200005B05DF804FB00BF0000000000000000AF
:1059300000B583B0002301930FE00B4A019B52F89E
:105940002330002B06D0084A019B52F8233018461A
:1059500007F07EFA019B01330193019B042BECDDE0
:1059600003B05DF804FB00BF701C002000000000C5
:1059700000B583B00023019314E00D4A019B52F857
:105980002330002B0BD00A4A019B52F823301846D3
:1059900007F0F6FA064A019B002142F82310019B0A
:1059A00001330193019B042BE7DD03B05DF804FB99
:1059B000701C00200000000000000000000000003B
:1059C00008B5012007F05CFAFFF7EAFD0346184628
:1059D00008BD00BF00000000000000000000000043
:1059E00082B00190024B01221A7002B0704700BFD2
:1059F000881C0020000000000000000000000000E3
:105A000000B585B00190019B42F2107202FB03F3D6
:105A100003F2E733084AA2FB03239B090393074BD6
:105A200000221A7006480399064A0023FFF730FE49
:105A300005B05DF804FB00BFD34D6210881C002048
:105A40008C1C0020E159000800000000000000004C
:105A500000B585B00190FFF7B3FE134B00221A701A
:105A60000023039307E0114A039B002142F823100F
:105A7000039B01330393039B042BF4DD019B5B68C1
:105A8000002B02D0019B5B689847019BDB6898471D
:105A9000019B9B68002B02D0019B9B689847FFF7F6
:105AA00067FF05B05DF804FB4D150020701C002059
:105AB00000B583B0002301930BE00E4B1B681B68FD
:105AC0009B680C4A126810462D219847019B0133B0
:105AD0000193019B4B2BF0D9064B1B681B681B687D
